:020000040800F2
:10000000D8080020CD010008252E0008412800084E
:10001000212E0008D3020008B92F000800000000BC
:100020000000000000000000000000002B2E00086F
:100030009503000800000000292E00082D2E00085E
:10004000E7010008E7010008E7010008E7010008F0
:10005000E7010008E701000897030008A103000872
:10006000AB030008E7010008E7010008E70100080A
:10007000E7010008E7010008E7010008E7010008C0
:10008000E7010008E7010008E7010008E7010008B0
:10009000E7010008E7010008E7010008E7010008A0
:1000A000E7010008E7010008E7010008E701000890
:1000B000E7010008E7010008392E0008E701000801
:1000C000E7010008E7010008E7010008E701000870
:1000D000E7010008A92F0008E7010008E701000870
:1000E000E7010008E7010008E7010008E701000850
:1000F000E7010008E7010008E7010008E701000840
:10010000E7010008E7010008E7010008E70100082F
:10011000E7010008E7010008E7010008E70100081F
:10012000E7010008E7010008E7010008E70100080F
:1001300000F002F800F03AF80AA090E8000C8244BF
:100140008344AAF10107DA4501D100F02FF8AFF29C
:10015000090EBAE80F0013F0010F18BFFB1A43F0A5
:1001600001031847A83F0000C83F0000103A24BF11
:1001700078C878C1FAD8520724BF30C830C144BF0C
:1001800004680C607047000000230024002500264E
:10019000103A28BF78C1FBD8520728BF30C148BFEA
:1001A0000B6070471FB51FBD10B510BD00F05CF8A7
:1001B0001146FFF7F7FF03F027FB00F07AF803B4CE
:1001C000FFF7F2FF03BC00F07DF80000094880470C
:1001D00009480047FEE7FEE7FEE7FEE7FEE7FEE729
:1001E000FEE7FEE7FEE7FEE704480549054A064B41
:1001F00070470000352E000831010008D8020020A9
:10020000D8080020D8040020D80400204FF00002B5
:1002100000B5134694469646203922BFA0E80C50FC
:10022000A0E80C50B1F12001BFF4F7AF090728BFD7
:10023000A0E80C5048BF0CC05DF804EB890028BF53
:1002400040F8042B08BF704748BF20F8022B11F07C
:10025000804F18BF00F8012B7047704770477047F8
:1002600000487047740200207546FFF7F9FFAE465C
:1002700005006946534620F00700854618B020B5B2
:10028000FFF7B2FFBDE820404FF000064FF0000737
:100290004FF000084FF0000B21F00701AC46ACE82E
:1002A000C009ACE8C009ACE8C009ACE8C0098D469B
:1002B000704710B50446AFF300802046BDE81040FB
:1002C000FFF77DBF01491820ABBEFEE72600020004
:1002D000704700BFFEE7000000B58BB0002006901D
:1002E00001900290039004900590079001200890DF
:1002F00009900E200A9001A90A4800F018F908B1E7
:1003000000F058F80221074800F057F808B100F053
:1003100051F8044800F0AAFA08B100F04BF80BB00D
:1003200000BD00003C0000202DE9F04387B00646E8
:100330000C46174698464FF000091EB9002002905F
:10034000009402E00420029001940497002003909E
:100350008DF814000BE009F101001FFA80F94FF647
:10036000FE70814503DD012007B0BDE8F083084839
:1003700000F062F90028EED006AB42466946044818
:1003800000F030F805460DB10120EDE70020EBE765
:100390003C000020704710B5012000F061FC10BD4A
:1003A00010B5022000F05CFC10BD10B5042000F078
:1003B00057FC10BD72B600BFFEE710B5024692F8BA
:1003C0002030012B01D0022B06D110684069084370
:1003D00014686061002010BD506A40F480205062B3
:1003E0000120F8E7F0B504460D461E4694F820704B
:1003F00020688368A86800B900E000BF012F01D021
:10040000022F7DD103F0806030B903F0006018B98D
:1004100003F0805000287ED0C3F3016101208840A2
:100420003060A86860B9B5F800C0E86840EA4C5C84
:10043000206800F5C07000EB0110C0F800C00FE0AC
:10044000D5E901C040EACC00D5F80CC040EA0C0068
:10045000D4F800C00CF5C07C0CEB011CCCF80000FB
:10046000D5F810C0206800F5C07000EB0110C0F88E
:1004700004C0287D01280ED1206800F5C07000EB73
:100480000110406840F4807C206800F5C07000EBEB
:100490000110C0F804C0D079000692F806C040EA06
:1004A0000C4092F805C040EA0C2092F804C040EAE3
:1004B0000C00D4F800C00CF5C07C0CEB011CCCF88F
:1004C0000C00D078000692F802C040EA0C4092F886
:1004D00001C040EA0C2092F800C040EA0C00D4F8B9
:1004E00000C00CF5C07C0CEB011CCCF808002068A7
:1004F00000F5C07000EB0110006840F0010C01E055
:100500000FE008E0206800F5C07000EB0110C0F8B3
:1005100000C00020F0BD606A40F40010606201205D
:10052000F8E7606A40F4802060620120F2E7F0B5ED
:1005300004460A46216894F82050012D01D0022D6E
:1005400074D1D1F8000240F00100C1F80002107D22
:1005500000F01F06012000FA06F3D1F81C029843B0
:10056000C1F81C02D069C8B9D1F80C029843C1F88F
:100570000C02908880B2968940EA064601F5107018
:10058000576940F83760108880B2168940EA0646FD
:1005900001F51070576900EBC7004660D06901286B
:1005A00019D1D1F80C021843C1F80C02908880B21E
:1005B000168840EA064601F51070576940F8376022
:1005C000908980B2168940EA064601F51070576995
:1005D00000EBC7004660906928B9D1F8040298433F
:1005E000C1F8040204E0D1F804021843C1F804027F
:1005F000106928B9D1F814029843C1F8140204E034
:10060000D1F814021843C1F81402106A012804D169
:10061000D1F81C021843C1F81C02D1F8000220F0E6
:100620000100C1F800020020F0BDFFE7606A40F45D
:10063000802060620120F7E70146002091F8202029
:10064000012A01D0022A11D10B689B6803F0806354
:1006500003B1401C0B689B6803F0006303B1401CAE
:100660000B689B6803F0805303B1401C704770B562
:1006700004460CB9012070BD94F8200010B9204642
:1006800000F0B0F82068006840F0010021680860C0
:1006900000F0A2FC05460DE000F09EFC401B0A287D
:1006A00008D9606A40F400306062052084F82000B8
:1006B0000120E0E72068406800F001000028EBD04E
:1006C0002068006820F002002168086000F084FCC7
:1006D00005460DE000F080FC401B0A2808D9606A3E
:1006E00040F400306062052084F820000120C2E759
:1006F0002068406800F002000028EBD1207E01282D
:1007000006D12068006840F080002168086005E09C
:100710002068006820F0800021680860607E012861
:1007200006D12068006840F040002168086005E0BC
:100730002068006820F0400021680860A07E012841
:1007400006D12068006840F020002168086005E0BC
:100750002068006820F0200021680860E07E012801
:1007600006D12068006820F010002168086005E0CC
:100770002068006840F0100021680860207F012890
:1007800006D12068006840F008002168086005E094
:100790002068006820F0080021680860607F012858
:1007A00006D12068006840F004002168086005E078
:1007B0002068006820F0040021680860D4E9020184
:1007C000084321690843616908436168491E084379
:1007D0002168C86100206062012084F820000020A8
:1007E00049E7000010B586B004460020029003904F
:1007F000049005901A49206888422ED100BF1948FC
:10080000C06940F000701749C8610846C06900F02F
:100810000070019000BF00BF00BF0846806940F033
:10082000040088610846806900F00400019000BF60
:1008300000BFC814029000200390049002A90A4847
:1008400000F01CFA4FF48050029002200390032025
:10085000059002A9044800F011FA06B010BD00008E
:1008600000640040001002400008014070B50446DA
:1008700094F82000012822D1022084F8200020686A
:10088000006820F001002168086000F0A5FB054623
:100890000DE000F0A1FB401B0A2808D9606A40F473
:1008A00000306062052084F82000012070BD2068BF
:1008B000406800F001000028EBD16062F6E7606A52
:1008C00040F4002060620120F0E70146002291F828
:1008D0002100022808D00420886300BF002081F88E
:1008E000200000BF012070470868006820F00E005B
:1008F0000B6818600868006820F001000B68186039
:1009000091F8403001209840CB6B5860012081F86D
:10091000210000BF002081F8200000BF1046E2E760
:1009200070B50446002594F82100022803D0042065
:10093000A0630125C1E02068006820F00E00216856
:1009400008602068006820F00100216808605C49A8
:100950002068884252D95A4978392068884201D1A2
:10096000012047E0564964392068884201D11020AF
:1009700040E0534950392068884201D1801539E060
:100980004F493C392068884201D1801432E04C49FB
:1009900028392068884202D14FF480302AE0484943
:1009A00014392068884202D14FF4801022E0444973
:1009B0002068884201D140041CE0424920688842F6
:1009C00001D1012016E03F4914312068884201D14D
:1009D00010200FE03B4928312068884201D1801562
:1009E00008E038493C312068884201D1801401E098
:1009F0004FF480303349091F086051E0304978399D
:100A00002068884201D1012047E02D4964392068DF
:100A1000884201D1102040E029495039206888429D
:100A200001D1801539E026493C392068884201D13E
:100A3000801432E0224928392068884202D14FF4DC
:100A400080302AE01E4914392068884202D14FF4D0
:100A5000801022E01A492068884201D140041CE03D
:100A600018492068884201D1012016E01549143147
:100A70002068884201D110200FE0124928312068F7
:100A8000884201D1801508E00E493C312068884237
:100A900001D1801401E04FF4803009498039486069
:100AA000012084F8210000BF002084F8200000BF4E
:100AB000606B10B12046616B8847284670BD00000E
:100AC000800002400804024070B5044600F084FA39
:100AD00006462546681C10B104480078054400BF4E
:100AE00000F07AFA801BA842FAD370BD30000020D3
:100AF00070B50446012C29D10121574800F05EFA57
:100B000005462021544800F059FA0646012D0DD122
:100B100036B952480088401C00B25049088005E0B0
:100B20004E480088401E00B24C4908806DB936B965
:100B30004A480088401E00B24849088005E04748FE
:100B40000088401C00B24549088000BF022C29D112
:100B50000221414800F032FA054640213E4800F0AB
:100B60002DFA0646012D0DD136B93C484088401C6F
:100B700000B23A49488005E038484088401E00B23B
:100B8000364948806DB936B934484088401E00B2B5
:100B90003249488005E031484088401C00B22F4966
:100BA000488000BF042C29D104212B4800F006FA0C
:100BB00005468021284800F001FA0646012D0DD196
:100BC00036B926488088401C00B22449888005E058
:100BD00022488088401E00B2204988806DB936B90D
:100BE0001E488088401E00B21C49888005E01B48D2
:100BF0008088401C00B21949888000BF082C29D188
:100C00000821154800F0DAF905466101124800F0A4
:100C1000D5F90646012D0DD136B91048C088401CC3
:100C200000B20E49C88005E00C48C088401E00B2E2
:100C30000A49C8806DB936B90848C088401E00B25C
:100C40000649C88005E00548C088401C00B2034939
:100C5000C88000BF70BD0000001C014000000020E3
:100C600010B5044604480068204020B102480460E2
:100C70002046FFF73DFF10BD140401402DE9F84761
:100C8000024600239C467BE14FF0010808FA03F47A
:100C9000D1F8008008EA0400A0427DD1DFF8F4A278
:100CA000D1F80480A8EB0A09D0453AD014DCB8F199
:100CB000030F50D009DCB8F1000F31D0B8F1010FAB
:100CC0001CD0B8F1020F49D120E0B8F1110F18D0B3
:100CD000B8F1120F42D11EE0B9F5881F25D006DC0D
:100CE000B9F5803F20D0B9F5801F37D11AE0B9F5AA
:100CF000001F18D0B9F5041F30D117E0D1F80CC08F
:100D00002DE0D1F80C8008F1040C28E0D1F80C801B
:100D100008F1080C23E0D1F80C8008F10C0C1EE05F
:100D200000BF00BF00BF00BF00BF00BFD1F80880F8
:100D3000B8F1000F02D14FF0040C0BE0D1F808809D
:100D4000B8F1010F03D14FF0080C146102E04FF02D
:100D5000080C546103E04FF0000C00E000BF00BF3E
:100D6000FF2801D8904601E002F104084646FF281A
:100D700002D84FEA830803E0A3F108084FEA880885
:100D80004746D6F800804FF00F0909FA07F928EA1C
:100D900009080CFA07F900E07AE048EA0908C6F801
:100DA0000080D1F8048008F08058B8F1805F6FD1DE
:100DB00000BFDFF8E481D8F8188048F00108DFF8B8
:100DC000D891C9F81880C846D8F8188008F00108EA
:100DD000CDF8008000BF00BF4FEAB9384FEA930951
:100DE00058F829504FEA83784FEA18794FF00F08E6
:100DF00008FA09F825EA0805DFF8A081424502D182
:100E00004FF0000824E0DFF89881424502D14FF00E
:100E100001081DE0DFF88C81424502D14FF0020845
:100E200016E0DFF88481424502D14FF003080FE05D
:100E3000DFF87881424502D14FF0040808E0DFF87E
:100E40007081424502D14FF0050801E04FF00608DD
:100E50004FEA83794FEA197908FA09F848EA050553
:100E6000DFF850814FEA930948F82950D1F80480FF
:100E700008F48018B8F5801F0BD1DFF83C81D8F852
:100E8000008048EA0008DFF83091C9F800800AE0E5
:100E900075E0DFF82481D8F8008028EA0008DFF840
:100EA0001891C9F80080D1F8048008F40018B8F54A
:100EB000001F0ED1DFF8008108F10408D8F8008087
:100EC00048EA0008DFF8F09009F10409C9F8008049
:100ED0000DE0DFF8E48008F10408D8F8008028EA83
:100EE0000008DFF8D49009F10409C9F80080D1F8AE
:100EF000048008F40038B8F5003F0ED1DFF8B88060
:100F0000A8F10408D8F8008048EA0008DFF8A890A3
:100F1000A9F10409C9F800800DE0DFF89C80A8F170
:100F20000408D8F8008028EA0008DFF88C90A9F1BE
:100F30000409C9F80080D1F8048008F48038B8F5B5
:100F4000803F0ED1DFF87080A8F10808D8F8008043
:100F500048EA0008DFF86090A9F10809C9F80080A4
:100F60000DE0DFF85480A8F10808D8F8008028EADE
:100F70000008DFF84490A9F10809C9F800805B1C5B
:100F8000D1F8008028FA03F8B8F1000F7FF47CAEA6
:100F9000BDE8F88700001110001002400008014071
:100FA000000C0140001001400014014000180140F5
:100FB000001C0140080001400804014002469368FB
:100FC0000B400BB1012000E0002070470AB1016125
:100FD00001E00B040361704701480068704700009E
:100FE0002800002070B504460CB9012070BD94F8AB
:100FF0003D0028B9002084F83C00204600F0DAF8D3
:10100000242084F83D002068006820F00100216859
:1010100008602068006840F400402168086020688B
:10102000006820F400402168086000F09BFA054643
:101030005C496068884206D85B48854201D201203D
:1010400007E0002005E05948854201D2012000E078
:101050000020012800D1C9E75548B5FBF0F620680B
:10106000406820F03F003043216848604D49606887
:10107000884201D8701C07E04FF4967070434FF41B
:101080007A71B0FBF1F0401C2168096A21F03F0140
:1010900008432168086243496068884214D8681E82
:1010A00061684900B0FBF1F0401CC0F30B0004285C
:1010B00001D204203DE0681E61684900B0FBF1F0F8
:1010C000401CC0F30B0034E0A06838B9681E6168AA
:1010D00001EB4101B0FBF1F0401C0AE0681E6168C1
:1010E00001EBC10202EB0111B0FBF1F0401C40F436
:1010F0008040C0F30B0008B901201AE0A06848B98D
:10110000681E616801EB4101B0FBF1F0401CC0F3C7
:101110000B000CE0681E616801EBC10202EB0111DB
:10112000B0FBF1F0401CC0F30B0040F4804040F4F1
:1011300000402168C9694CF6FF7291430843216859
:10114000C861D4E9070108432168096821F0C0019A
:10115000084321680860D4E90310084321688968BE
:1011600048F2FF329143084321688860D4E90501C1
:1011700008432168C96821F0FF0108432168C8605D
:101180002068006840F001002168086000202064A9
:10119000202084F83D000020206384F83E0000BF3A
:1011A00024E70000A086010080841E0000093D00A5
:1011B00040420F0010B586B0044600200290039014
:1011C0000490059015492068884225D100BF144835
:1011D000806940F00800124988610846806900F083
:1011E0000800019000BF00BFC020029012200390B1
:1011F0000320059002A90B48FFF740FD00BF0848F7
:10120000C06940F400100649C8610846C06900F48E
:101210000010019000BF00BF06B010BD0054004098
:1012200000100240000C014003480068034909789F
:101230000844014908607047280000203000002061
:1012400010B50848006840F0100006490860032007
:1012500000F0A8F80F2000F007F800F02BF80020AD
:1012600010BD00000020024070B504460E48007812
:101270004FF47A71B1FBF0F00C490968B1FBF0F55D
:10128000284600F0F9FB08B1012070BD102C07D2F0
:1012900000222146501E00F047F80548046001E096
:1012A0000120F2E70020F0E73000002034000020A9
:1012B0002C00002008B500BF1148806940F00100F3
:1012C0000F4988610846806900F00100009000BF66
:1012D00000BF00BF0846C06940F08050C8610846A2
:1012E000C06900F08050009000BF00BF00BF0549FA
:1012F000486820F0E06040F00070486000BF08BD22
:10130000001002400000014001460846002809DBA9
:1013100000F01F0301229A4043099B0003F1E023E0
:10132000C3F8002100BF70472DE9F05F80460D46ED
:101330001646002702F060FA074639462A46334629
:1013400001F00700C0F1070ABAF1040F02D94FF00B
:10135000040A01E0C0F1070AD14600F1040ABAF11B
:10136000070F02D24FF0000A01E0A0F1030AD446B1
:101370004FF0010A0AFA09FAAAF1010A0AEA020A76
:101380000AFA0CFA4FF0010B0BFA0CFBABF1010B54
:101390000BEA030B4AEA0B042146404602F018FA16
:1013A000BDE8F09F00BF00F00702064B19684FF63A
:1013B000FF031940044B0B4343EA0221014B196020
:1013C00000BF70470CED00E00000FA0570B5044660
:1013D0000D460CB9012070BD5A48006800F00700A6
:1013E000A8420ED25748006820F00700284355490C
:1013F00008600846006800F00700A84201D00120FC
:10140000E9E7207800F0020002281DD1207800F0E2
:101410000400042805D14C48406840F4E0604A4983
:101420004860207800F00800082805D14648406848
:1014300040F46050444948604348406820F0F00060
:10144000A168084340494860207800F0010078B363
:101450006068012806D13C48006800F4003090B96B
:101460000120B8E76068022806D13748006800F01C
:10147000007040B90120AEE73348006800F0020078
:1014800008B90120A7E73048406820F003006168F0
:1014900008432D494860FFF79FFD064609E0FFF726
:1014A0009BFD801B41F28831884202D9032092E7DC
:1014B00007E02548406800F00C006168B0EB810F40
:1014C000EDD12048006800F00700A8420ED91D4861
:1014D000006820F0070028431A49086008460068A1
:1014E00000F00700A84201D0012074E7207800F046
:1014F0000400042807D11448406820F4E060E16843
:10150000084311494860207800F00800082808D1F5
:101510000D48406820F46050216940EAC1000A4942
:10152000486000F03FF808494968C1F30311074AD1
:10153000515CC8400649086006480068FFF794FE01
:10154000002048E70020024000100240E840000868
:10155000340000202C000020014800687047000083
:101560003400002000B5FFF7F7FF04494968C1F3D4
:101570000221034A515CC84000BD00000010024037
:10158000F840000800B5FFF7E7FF04494968C1F3D8
:10159000C221034A515CC84000BD00000010024057
:1015A000F840000870B5002100220024002300202C
:1015B000134D696801F00C05EDB1042D02D0082D22
:1015C0001AD101E00F4819E00F4DC1F38346AB5D1E
:1015D00001F4803555B10A4D6D68C5F340450B4E99
:1015E000725D084D5D43B5FBF2F402E0084D03FB6C
:1015F00005F4204602E000BF024800BF00BF70BDF6
:101600000010024000127A00D6400008E6400008B0
:1016100000093D00F8B504460CB90120F8BD20785A
:1016200000F00100002878D0F848406800F00C0075
:1016300004280CD0F548406800F00C00082811D1AF
:10164000F248406800F48030B0F5803F0AD1EF489E
:10165000006800F4003000285FD0606800285CD18A
:101660000120DBE700BF6068B0F5803F06D1E748A6
:10167000006840F48030E549086028E0606858B9A7
:10168000E248006820F48030E049086008460068BD
:1016900020F4802008601AE06068B0F5A02F0BD11C
:1016A000DA48006840F48020D8490860084600689D
:1016B00040F4803008600AE0D448006820F48030AC
:1016C000D24908600846006820F48020086000BF06
:1016D000606888B1FFF780FC054606E0FFF77CFCF8
:1016E000401B642801D9032098E7C848006800F42B
:1016F00000300028F2D010E0FFF76EFC054606E04F
:10170000FFF76AFC401B642801D9032086E7BF4825
:10171000006800F400300028F2D1207800F00200C8
:10172000022857D1B948406800F00C0050B1B748C2
:10173000406800F00C00082818D1B448406800F454
:10174000803098B9B148006800F0020020B12069EB
:10175000012801D0012061E7AC48006820F0F800C2
:10176000616940EAC100A949086033E02069E8B135
:101770000120A7490860FFF72FFC054606E0FFF7A8
:101780002BFC401B022801D9032047E79F48006833
:1017900000F002000028F2D09C48006820F0F80019
:1017A000616940EAC1009949086013E00020984946
:1017B0000860FFF711FC054606E0FFF70DFC401B33
:1017C000022801D9032029E79048006800F00200B0
:1017D0000028F2D1207800F0080008282DD1A06957
:1017E000B8B101208B490860FFF7F6FB054606E01B
:1017F000FFF7F2FB401B022801D903200EE78348C4
:10180000406A00F002000028F2D0012001F082FDC1
:1018100013E000207F490860FFF7DEFB054606E085
:10182000FFF7DAFB401B022801D90320F6E67748D0
:10183000406A00F002000028F2D1207800F0040095
:10184000042873D100277148C06900F0805070B936
:1018500000BF6E48C06940F080506C49C8610846BE
:10186000C06900F08050009000BF00BF01276A48A7
:10187000006800F48070B0B96748006840F4807078
:1018800065490860FFF7A8FB054606E0FFF7A4FBE3
:10189000401B642801D90320C0E65F48006800F4BB
:1018A00080700028F2D000BFE068012806D15748B8
:1018B000006A40F001005549086227E0E06858B925
:1018C0005248006A20F00100504908620846006A48
:1018D00020F00400086219E0E06805280BD14B48AD
:1018E000006A40F00400494908620846006A40F076
:1018F000010008620AE04548006A20F001004349FF
:1019000008620846006A20F00400086200BFE06830
:10191000A0B1FFF761FB054609E0FFF75DFB401B47
:1019200041F28831884202D9032077E622E0374825
:10193000006A00F002000028EFD012E0FFF74CFB35
:10194000054608E0FFF748FB401B41F2883188421A
:1019500001D9032062E62D48006A00F00200002849
:10196000F0D1012F05D12948C06920F080502749C6
:10197000C86100BFE069C8B32448406800F00C00AB
:10198000082860D0E069022848D100202049086674
:10199000FFF722FB054606E0FFF71EFB401B02286F
:1019A00001D903203AE61948006800F000700028C9
:1019B000F2D1206AB0F5803F07D11448406820F486
:1019C0000030A168084311494860D4E90801084380
:1019D0000E49496821F4741108430C4948600120FC
:1019E0000B490866FFF7F8FA054607E03DE0FFF708
:1019F000F3FA401B022801D903200FE603480068D0
:101A000000F000700028F2D02FE00000001002402B
:101A1000000042428004424200700040002014490D
:101A20000866FFF7D9FA054606E0FFF7D5FA401B2E
:101A3000022801D90320F1E50E48006800F000708B
:101A40000028F2D111E0E069012800D1E6E509485B
:101A5000466806F48031206A814204D106F4701190
:101A6000606A814201D00120D8E50020D6E500005F
:101A7000000042420010024070B504462546681E30
:101A8000B0F1807F01D301200FE0681E4FF0E0210C
:101A900048610F214FF0FF3001F09AFE00204FF017
:101AA000E021886107200861002070BD7047704701
:101AB00010B50346002200BF93F83C00012801D175
:101AC000022010BD012083F83C0000BF22F0FF007F
:101AD000CC6840EA040222F440708C6840EA0402B8
:101AE00022F480604C6840EA040222F400600C6832
:101AF00040EA040222F480500C6940EA040222F415
:101B000000504C6940EA040222F48040CC6940EA6B
:101B100004021868426400BF002083F83C0000BF44
:101B200000BFCEE730B502460B4600BF92F83C003E
:101B3000012801D1022030BD012082F83C0000BF05
:101B4000022082F83D00106844681068816824F023
:101B500070041868044310684460144D1068A8426B
:101B600013D0134D1068A8420FD01068B0F1804F09
:101B70000BD0104D1068A84207D00F4D1068A84236
:101B800003D00E4D1068A84205D121F0800158689D
:101B9000014310688160012082F83D0000BF0020F1
:101BA00082F83C0000BF00BFC5E70000002C0140E8
:101BB000003401400004004000080040000C0040D8
:101BC00010B504460CB9012010BD94F83D0028B9A9
:101BD000002084F83C00204600F026F8022084F81B
:101BE0003D00211D206801F02FF9012084F84600F6
:101BF00000BF84F83E0001213F20015540200155DF
:101C00004120015500BF00BF012084F8420043205D
:101C10000155442001554520015500BF012084F89D
:101C20003D000020D0E7000038B504463149206867
:101C300088420DD100BF3048806940F400602E49D1
:101C400088610846806900F40060009000BF50E0A1
:101C50002A49206888420DD100BF2748C06940F05A
:101C600002002549C8610846C06900F002000090E2
:101C700000BF3EE022492068884216D100BF1E48BE
:101C8000C06940F004001C49C8610846C06900F002
:101C90000400009000BF00BF002203211E20FFF7B8
:101CA00043FB1E20FFF730FB23E0164920688842E3
:101CB0000DD100BF1048C06940F010000E49C86146
:101CC0000846C06900F01000009000BF11E00E4906
:101CD000206888420DD100BF0748806940F4005059
:101CE000054988610846806900F40050009000BFF3
:101CF00000BF38BD002C014000100240000400402D
:101D0000000800400010004000340140014691F8F6
:101D10003D00012801D001207047022081F83D00DC
:101D2000164B0868984213D0154B086898420FD09C
:101D30000868B0F1804F0BD0124B0868984207D06A
:101D4000114B0868984203D0104B086898420CD198
:101D50000868806800F00702062A0CD0086800684E
:101D600040F001000B68186005E00868006840F06A
:101D700001000B6818600020CEE70000002C014035
:101D8000003401400004004000080040000C004006
:101D9000014691F83D00012801D001207047022042
:101DA00081F83D000868C06840F001000B68D86009
:101DB000164B0868984213D0154B086898420FD00C
:101DC0000868B0F1804F0BD0124B0868984207D0DA
:101DD000114B0868984203D0104B086898420CD108
:101DE0000868806800F00702062A0CD008680068BE
:101DF00040F001000B68186005E00868006840F0DA
:101E000001000B6818600020C8E70000002C0140AA
:101E1000003401400004004000080040000C004075
:101E2000014600BF0868006A41F21112104050B923
:101E30000868006A9210104028B90868006820F00D
:101E400001000A68106000BF012081F83D000020F9
:101E500070472DE9F04104460D46002700BF94F875
:101E60003C00012802D10220BDE8F081012084F865
:101E70003C0000BF022084F83D002068866826F000
:101E8000770626F47F46206886602868502833D07D
:101E90000CDC202850D004DC00284BD0102851D175
:101EA00049E0302849D040284CD139E060282DD075
:101EB000702807D0B0F5805F03D0B0F5005F41D146
:101EC0000DE041E0D5E902136A68206801F023F8CB
:101ED0002068866846F077062068866034E0D5E999
:101EE00002136A68206801F016F82068806840F4E0
:101EF00080402168886027E0EA686968206801F00E
:101F0000C4FA5021206801F0B7FA1DE0EA68696858
:101F1000206801F0CDFA6021206801F0ADFA13E0ED
:101F2000EA686968206801F0B0FA4021206801F091
:101F3000A3FA09E000BF00BF00BF2968206801F0D4
:101F40009BFA01E0012700BF00BF012084F83D009B
:101F500000BF002084F83C0000BF384684E770478B
:101F600070B504462068C5682068066906F002005E
:101F7000022819D105F00200022815D1401F21685E
:101F80000861012020772068806900F0030018B103
:101F90002046FFF7E4FF05E0204600F011F9204657
:101FA00000F0C5F90020207706F00400042819D1BC
:101FB00005F00400042815D1C043216808610220FF
:101FC00020772068806900F4407018B12046FFF740
:101FD000C6FF05E0204600F0F3F8204600F0A7F920
:101FE0000020207706F00800082819D105F0080025
:101FF000082815D1C0432168086104202077206893
:10200000C06900F0030018B12046FFF7A8FF05E003
:10201000204600F0D5F8204600F089F9002020770E
:1020200006F01000102819D105F01000102815D165
:10203000C04321680861082020772068C06900F447
:10204000407018B12046FFF78AFF05E0204600F0F7
:10205000B7F8204600F06BF90020207706F0010069
:1020600048B105F0010030B16FF00100216808614E
:10207000204600F0D7F906F08000802809D105F04D
:102080008000802805D1C043216808612046FFF701
:102090000DFD06F04000402809D105F04000402821
:1020A00005D1C04321680861204600F0C9F906F057
:1020B0002000202809D105F02000202805D1C043A8
:1020C000216808612046FFF7F2FC70BD10B586B0AC
:1020D0000446002002900390049005903049206847
:1020E000884222D100BF2F48806940F040002D492E
:1020F00088610846806900F04000019000BF00BF81
:102100004FF4D440029002200390059002A9264883
:10211000FEF7B4FD00BF2549486820F0C00040F03C
:10212000E06040F0C000486037E021492068884204
:1021300017D100BF1B48806940F00400194988612D
:102140000846806900F00400019000BF00BF4020F5
:10215000029002200390059002A91648FEF78EFD1A
:102160001BE015492068884217D100BF0D488069DF
:1021700040F010000B4988610846806900F01000AB
:10218000019000BF00BF4FF47070029002200390D6
:10219000059002A90948FEF771FD06B010BD0000C8
:1021A000002C0140001002400018014000000140D6
:1021B00000040040000801400034014000100140CC
:1021C00070472DE9F04104460D461646002700BF32
:1021D00094F83C00012802D10220BDE8F0810120E2
:1021E00084F83C0000BF36B1042E1BD0082E31D03D
:1021F0000C2E5ED145E02946206801F09FF820684A
:10220000806940F00800216888612068806920F0BA
:102210000400216888612068806929690843216871
:10222000886148E02946206800F080FE20688069C7
:1022300040F40060216888612068806920F4806033
:102240002168886120688069296940EA0120216845
:10225000886130E02946206801F0A8F82068C0694C
:1022600040F008002168C8612068C06920F00400BF
:102270002168C8612068C069296908432168C8616C
:1022800019E02946206801F0CDF82068C06940F4C3
:1022900000602168C8612068C06920F480602168FE
:1022A000C8612068C069296940EA01202168C861C5
:1022B00001E0012700BF00BF00BF002084F83C0000
:1022C00000BF384689E710B504460CB9012010BD9F
:1022D00094F83D0028B9002084F83C00204600F026
:1022E00025F8022084F83D00211D206800F0ACFD97
:1022F000012084F8460000BF84F83E0001213F2001
:102300000155402001554120015500BF00BF01206B
:1023100084F84200432001554420015545200155D1
:1023200000BF012084F83D000020D0E770477047CF
:1023300070B504460D4615B994F83E000BE0042D27
:1023400002D13F20005D06E0082D02D14020005D53
:1023500001E04120005D012801D0012070BD1DB9C0
:10236000022084F83E000EE0042D03D102213F201C
:10237000015508E0082D03D102214020015502E05B
:1023800002214120015501222946206800F0B2FDBA
:102390001F492068884203D01E492068884201D125
:1023A000012000E0002028B12068406C40F400408B
:1023B0002168486416492068884213D0154920686E
:1023C00088420FD02068B0F1804F0BD012492068AE
:1023D000884207D011492068884203D010492068FC
:1023E00088420CD12068806800F00706062E0CD0C9
:1023F0002068006840F001002168086005E020685E
:10240000006840F00100216808600020A6E7000095
:10241000002C01400034014000040040000800404E
:10242000000C00400449884204D104490968491C51
:10243000024A116070470000480100201800002087
:1024400070477047704700002DE9F84F0446206838
:1024500005682068C668206847694FF00009CA46C9
:1024600005F00F09B9F1000F0AD105F0200038B1CD
:1024700006F0200020B1204601F0ACF8BDE8F88F4E
:10248000B9F1000F7BD007F0010018B906F4907085
:10249000002874D005F0010030B106F4807018B146
:1024A000606C40F00100606405F0040030B107F09A
:1024B000010018B1606C40F00200606405F0020099
:1024C00030B107F0010018B1606C40F004006064A6
:1024D00005F0080048B106F0200010B907F001002F
:1024E00018B1606C40F008006064606C002845D052
:1024F00005F0200028B106F0200010B1204601F0C0
:1025000069F820684069C0F3801A606C00F0080028
:1025100010B9BAF1000F2CD0204601F009F920685B
:10252000406900F0400000B300BF00BF21681431D3
:1025300051E8001F21F040002168143141E80002F9
:10254000002AF3D100BFE06B50B17748E16B4863DC
:10255000E06BFEF7E5F988B1E06B416B88470DE071
:102560002046FFF76FFF09E009E02046FFF76AFF0A
:1025700004E02046FFF766FF002060647EE7206BE2
:10258000012877D105F01000002873D006F0100064
:102590000028FAD000BF002000902068006800905A
:1025A00020684068009000BF00BF2068406900F0CC
:1025B000400000285FD0E06B006840681FFA80F898
:1025C000B8F1000F55D0A08D404552DDA4F82E8003
:1025D000E06B8069202843D000BF00BF21680C3128
:1025E00051E8001F21F4807021680C3141E800029D
:1025F000002AF3D100BF00BF00BF2168143151E8A9
:10260000001F21F001002168143141E80002002A76
:10261000F3D100BF00BF00BF2168143151E8001F93
:1026200021F040002168143141E80002002AF3D172
:1026300000BF202084F842000020206300BF00BFBC
:1026400021680C3151E8001F21F0100021680C3185
:1026500041E80002002AF3D100BFE06BFEF735F934
:1026600002206063A08DE28D801A81B22046FFF7C0
:10267000E8FE03E742E0A08DE18D401A1FFA80F8E2
:10268000E08DD0B3B8F1000F37D000BF00BF216894
:102690000C3151E8001F21F4907021680C3141E8A1
:1026A0000002002AF3D100BF00BF00BF216814312F
:1026B00051E8001F21F001002168143141E80002B7
:1026C000002AF3D100BF202084F8420000202063BC
:1026D00000BF00BF21680C3151E8001F21F010003D
:1026E00021680C3141E80002002AF3D100BF02202A
:1026F000606341462046FFF7A4FEBFE605F0800078
:1027000030B106F0800018B1204600F0E1FFB5E6D8
:1027100005F0400030B106F0400018B1204601F04D
:102720003DF8ABE600BFA9E6BD37000810B504468A
:102730000CB9012010BDA06900B100E000BF94F801
:10274000410028B9002084F84000204600F02AF813
:10275000242084F841002068C06820F400502168DB
:10276000C860204600F0B8FE2068006920F4904060
:10277000216808612068406920F02A0021684861CA
:102780002068C06840F400502168C8600020606480
:10279000202084F8410084F842000020606300BFDC
:1027A000C8E7000010B586B00446002002900390F0
:1027B000049005901E492068884236D100BF1D480C
:1027C000806940F480401B4988610846806900F4B4
:1027D0008040019000BF00BF00BF0846806940F004
:1027E000040088610846806900F00400019000BF81
:1027F00000BF48150290022003900320059002A913
:102800000D48FEF73BFA4FF48060029000200390E1
:10281000049002A90848FEF731FA0022022125207F
:10282000FEF782FD2520FEF76FFD06B010BD00000B
:102830000038014000100240000801407047704716
:1028400000BFFEE710B50D480D4908600220486042
:1028500000210B488160C1604FF440210161890073
:1028600041610021017641768176C1760177417719
:10287000FDF7FDFE08B1FDF79DFD10BD00640040B1
:102880003C00002000B585B000200190029003902C
:10289000049000BF6448806940F04000624988614C
:1028A0000846806900F04000009000BF00BF00BFF4
:1028B0000846806940F0800088610846806900F021
:1028C0008000009000BF00BF00BF0846806940F054
:1028D000040088610846806900F00400009000BF91
:1028E00000BF00BF0846806940F4807088610846D8
:1028F000806900F48070009000BF00BF00BF0846F0
:10290000806940F0100088610846806900F010007E
:10291000009000BF00BF00BF0846806940F008007B
:1029200088610846806900F00800009000BF00BF81
:1029300001224FF4C0713D48FEF748FB012241F2ED
:10294000F8113B48FEF742FB00224FF4C0413848E3
:10295000FEF73CFB0820019000200290012003902C
:1029600001A93248FEF78AF90F2001903148029000
:102970000020039001A93048FEF780F9F020019073
:10298000002002900220039001A92B48FEF776F95F
:102990004FF4C070019001200290002003900320AA
:1029A000049001A92148FEF769F94FF4FC700190E9
:1029B00001200290002003900220049001A91C48ED
:1029C000FEF75CF94FF400600190002002900120B6
:1029D000039001A91648FEF751F94FF4E040019029
:1029E00001200290002003900320049001A91048C8
:1029F000FEF744F9002201210620FEF795FC06208F
:102A0000FEF782FC002201210720FEF78DFC072043
:102A1000FEF77AFC002201210820FEF785FC082041
:102A2000FEF772FC05B000BD001002400018014026
:102A30000020014000003110001C014010B50B487F
:102A40000B4908600B484860002109488160C1605B
:102A50004FF480410161002141618161C1610162E6
:102A6000FEF7C0FA08B1FDF7A5FC10BD0054004008
:102A700064000020A086010000B595B000201190F0
:102A80001290139014900F9010901C2108A8FDF73D
:102A9000BDFB20216846FDF7B9FB37483749086080
:102AA000472048600021354881606321C1600021D2
:102AB0000161416180218161FFF782F808B1FDF772
:102AC00079FC4FF48050119011A92C48FFF7C1F9FF
:102AD00008B1FDF76FFC2948FFF7F5FB08B1FDF7DA
:102AE00069FC00200F9010900FA92448FFF71AF8F6
:102AF00008B1FDF75FFC60200890002009900A9063
:102B00000B900C900D900E90002208A91B48FFF727
:102B100058FB08B1FDF74EFC042208A91748FFF73F
:102B200050FB08B1FDF746FC082208A91348FFF73F
:102B300048FB08B1FDF73EFC0C2208A90F48FFF73F
:102B400040FB08B1FDF736FC002000900190029098
:102B5000039004904FF400500590002007906946C0
:102B60000648FEF7A5FF08B1FDF724FC0348FFF770
:102B7000ADFA15B000BD0000002C0140B8000020E7
:102B800000B58DB0002009900A900B900C90079032
:102B900008901C216846FDF739FB20482049086051
:102BA0004720486000211E48816044F61F61C160D3
:102BB000002101618161FFF703F808B1FDF7FAFB1D
:102BC0004FF48050099009A91548FFF742F908B160
:102BD000FDF7F0FB1248FFF776FB08B1FDF7EAFBC3
:102BE00000200790089007A90D48FEF79BFF08B149
:102BF000FDF7E0FB6020009000200190029004901F
:102C0000002269460648FFF7DCFA08B1FDF7D2FB5F
:102C10000348FFF75BFA0DB000BD00000004004060
:102C20000001002000B587B00020039004900590BB
:102C300006900190029015481549086047204860A9
:102C400000211348816040F2E731C1600021016139
:102C500080218161FEF7B4FF08B1FDF7ABFB4FF4B3
:102C60008050039003A90A48FFF7F3F808B1FDF775
:102C7000A1FB00200190029001A90548FEF752FF38
:102C800008B1FDF797FB07B000BD00000008004049
:102C9000480100201CB50020009001900E480F490B
:102CA00008604720486000210C4881604FF6FF71A2
:102CB000C16000218161FEF783FF08B1FDF77AFB57
:102CC00000200090019069460448FEF72BFF08B1F0
:102CD000FDF770FB1CBD00000010004090010020BB
:102CE00000B595B0002011901290139014900F90A1
:102CF00010901C2108A8FDF789FA20216846FDF7ED
:102D000085FA374837490860472048600021354830
:102D1000816044F61F61C1600021016141618161F0
:102D2000FEF74EFF08B1FDF745FB4FF480501190C0
:102D300011A92C48FFF78DF808B1FDF73BFB294896
:102D4000FFF7C1FA08B1FDF735FB00200F90109096
:102D50000FA92448FEF7E6FE08B1FDF72BFB602023
:102D60000890002009900A900B900C900D900E9006
:102D7000002208A91B48FFF724FA08B1FDF71AFB47
:102D8000042208A91748FFF71CFA08B1FDF712FB47
:102D9000082208A91348FFF714FA08B1FDF70AFB47
:102DA0000C2208A90F48FFF70CFA08B1FDF702FB47
:102DB0000020009001900290039004904FF4005086
:102DC00005900020079069460648FEF771FE08B19D
:102DD000FDF7F0FA0348FFF779F915B000BD0000E0
:102DE00000340140D801002010B50B480B490860A1
:102DF0004FF4E1304860002108488160C160016102
:102E00000C21416100218161C161FFF78FFC08B194
:102E1000FDF7D0FA10BD000000380140200200206C
:102E200000BFFEE700BFFEE77047704710B5FEF732
:102E3000FBF910BD7047000010B50248FFF790F88D
:102E400010BD00004801002010B50268244B9842D4
:102E50000ED0244B98420BD0B0F1804F08D0224BBB
:102E6000984205D0214B984202D0214B984203D181
:102E700022F070024B681A43194B98420ED0194B3E
:102E800098420BD0B0F1804F08D0174B984205D034
:102E9000164B984202D0164B984203D122F440724E
:102EA000CB681A4322F080034C6943EA04020260B3
:102EB0008B68C3620B688362094B984202D0094B4E
:102EC000984201D10B69036301234361036903F055
:102ED00001031BB1036923F00103036110BD00006E
:102EE000002C014000340140000400400008004074
:102EF000000C004030B501F01F05012404FA05F371
:102F0000046A9C430462046A01F01F0502FA05F595
:102F10002C43046230BD30B50C46816821F47F41FA
:102F200042EA032525432943816030BD30B5026A5A
:102F3000056A25F0100505624368846924F4E044BD
:102F400024F440740D6844EA052422F020028D68C0
:102F500042EA0512124DA84200D103E0114DA842E9
:102F600007D100BF22F08002CD6842EA051222F0AC
:102F700040020B4DA84202D00A4DA84209D123F4C9
:102F8000806323F400634D6943EA85038D6943EA56
:102F90008503436084614D688563026230BD000033
:102FA000002C01400034014010B50248FFF74CFAF4
:102FB00010BD00002002002000BFFEE770B50446EF
:102FC00000F034F9002507E01149485D00F076F97A
:102FD00010494855681CC5B2092DF5DB00F01CF9F5
:102FE0000C48407820700B48C078C0436070094896
:102FF0000079C043A07007484079E07005488079A7
:1030000020710448C07960710248007AA07170BDD7
:1030100000410008680200201CB5044606A103C94F
:10302000CDE900016B460648027821460548007844
:10303000FDF77AF91CBD0000FFFFFFFFFFFFFFFC5B
:1030400039000020380000202DE9F05F81460C4651
:10305000612C1DD1484600F005FE074600224D4B6D
:1030600000F0A8FC054600F073FC82464A49504631
:1030700000F0E6FE0646494900F060FE054600F015
:10308000BFFE1FFA80FB46480068C0F834B000BF9E
:10309000622C1DD1484600F0E5FD074600223D4B5D
:1030A00000F088FC054600F053FC82463A49504641
:1030B00000F0C6FE06463B4900F08EFF054600F0D4
:1030C0009FFE1FFA80FB36480068C0F838B000BF8A
:1030D000632C1DD1484600F0C5FD074600222D4B4C
:1030E00000F068FC054600F033FC82462A49504651
:1030F00000F0A6FE06462B4900F06EFF054600F0E4
:103100007FFE1FFA80FB26480068C0F83CB000BF75
:10311000642C1DD1484600F0A5FD07460022224B35
:1031200000F048FC054600F013FC82461A49504660
:1031300000F086FE0646194900F000FE054600F044
:103140005FFE1FFA80FB16480068C0F840B000BF61
:10315000652C1DD1484600F085FD074600220D4B29
:1031600000F028FC054600F0F3FB82460A49504671
:1031700000F066FE0646094900F0E0FD054600F055
:103180003FFE1FFA80FB09480068C0F834B000BF5A
:10319000BDE8F09F008066400000FA440000FA435A
:1031A000D801002000401C4500C0724000010020F2
:1031B00000B58FB0282105A8FDF728F8142168462E
:1031C000FDF724F8012005900004069000200790E8
:1031D0000120099002200C90C1030D914FF4E011E1
:1031E0000E9105A8FEF716FA08B1FDF7E3F80F20D7
:1031F000009002200190002002904FF48060039024
:103200000020049002216846FEF7E0F808B1FDF7BF
:10321000D1F80FB000BD000010B5012251030248E3
:10322000FDF7D4FE10BD00000020014010B50022C3
:103230004FF400510148FDF7C9FE10BD00200140C8
:1032400010B5012291030248FDF7C0FE10BD000039
:103250000020014010B500224FF480410148FDF7E5
:10326000B5FE10BD0020014010B501221103024837
:10327000FDF7ACFE10BD00000020014010B500229B
:103280004FF480510148FDF7A1FE10BD0020014020
:1032900010B5044600200849096848620648FEF750
:1032A00035FD00BF04480068406AA042FAD30248D6
:1032B000FEF7B6FD10BD00009001002038B50546B0
:1032C0000020009001241DE004EA050010B1FFF782
:1032D000CBFF01E0FFF7D2FFFFF7BCFF1020FFF7A5
:1032E000D7FF4FF400610A48FDF768FE18B19DF85A
:1032F000000020430090FFF7A3FF1020FFF7C8FF56
:103300006006040E002CDFDC9DF8000038BD0000D4
:103310000020014008B508490968C9084FF47A72CD
:10332000B1FBF2F14143009100BF00BF00994A1E7A
:1033300000920029F9D108BD3400002030B5026A9E
:10334000056A25F0010505624368846924F070046C
:1033500024F003040D682C4322F002028D682A43F6
:10336000104DA84200D103E00F4DA84206D100BF86
:1033700022F00802CD682A4322F00402094DA84237
:1033800002D0094DA84207D123F4807323F40073BF
:103390004D692B438D692B43436084614D684563C0
:1033A000026230BD002C01400034014030B5026A99
:1033B000056A25F4807505624368C46924F07004C9
:1033C00024F003040D682C4322F400728D6842EA55
:1033D0000522124DA84200D103E0114DA84207D1A9
:1033E00000BF22F40062CD6842EA052222F4806226
:1033F0000A4DA84202D00A4DA84209D123F48053B5
:1034000023F400534D6943EA05138D6943EA05131C
:103410004360C4614D68C563026230BD002C014049
:103420000034014030B5036A056A25F48055056211
:103430004468C26922F4E04222F440720D6842EA14
:10344000052223F400538D6843EA0533084DA84252
:1034500002D0084DA84204D124F480444D6944EAC6
:1034600085144460C2614D680564036230BD00008C
:10347000002C0140003401400A46816821F07001AF
:1034800042F0070319438160704730B50B4614467C
:10349000026A056A25F001050562816921F0F001E3
:1034A00041EA041122F00A021A438161026230BD2E
:1034B00030B50B461446026A056A25F01005056210
:1034C000816921F4704141EA043122F0A00242EA0C
:1034D00003128161026230BD70B50446216809693A
:1034E00021F44051E2681143226811612269A16808
:1034F0001143626941EA02052168C96841F20C6220
:10350000914329432268D1602168496921F44071BF
:10351000A2691143226851612D4A2168914202D16A
:10352000FEF730F801E0FEF71DF800EBC00101EBFB
:10353000001162689200B1FBF2F100EBC00202EBF5
:10354000001263689B00B2FBF3F26423B2FBF3F258
:1035500002EBC20303EB0212A1EB8201322202EB67
:1035600001116422B1FBF2F101F0F00100EBC002A5
:1035700002EB001263689B00B2FBF3F26423B2FB20
:10358000F3F201EB021200EBC00101EB00116368E2
:103590009B00B1FBF3F100EBC00303EB0013666883
:1035A000B600B3FBF6F36426B3FBF6F303EBC306F6
:1035B00006EB0313A1EB8301322303EB0111642318
:1035C000B1FBF3F101F00F0111442268916070BD6D
:1035D00000380140F8B5044694F84200222875D11D
:1035E000A068B0F5805F0CD1206950B90025A66AAB
:1035F00020684068C0F308003080A06A801CA06288
:1036000015E0A56A0026A068B0F5805F03D0A06829
:1036100028B9206918B920684068287004E020683B
:10362000406800F07F002870A06A401CA062E08D16
:10363000401E80B2E085002846D12068C06820F096
:1036400020002168C8602068C06820F4807021686C
:10365000C8602068406920F001002168486120208E
:1036600084F8420000206063206B012826D10020EE
:10367000206300BF00BF21680C3151E8001F21F01A
:10368000100021680C3141E80002002AF3D100BF8C
:103690002068006800F0100010280AD100BF002048
:1036A000009020680068009020684068009000BF8B
:1036B00000BFA18D2046FEF7C4FE02E02046FFF7C2
:1036C000BDF80020F8BD01E00020FBE70220F9E78B
:1036D000014691F84100212828D18868B0F5805F23
:1036E0000BD1086948B90A6A1088C0F308000B6852
:1036F0005860086A801C086205E00B6A581C086262
:1037000018780B685860C88C401E80B2C88458B9BD
:103710000868C06820F080000B68D8600868C0683E
:1037200040F040000B68D860002070470220FCE7A2
:1037300000BF00BF02680C3252E8002F22F49071E3
:1037400002680C3242E80013002BF3D100BF00BF27
:1037500000BF0268143252E8002F22F00101026813
:10376000143242E80013002BF3D100BF016B012992
:103770000ED100BF00BF02680C3252E8002F22F0C9
:10378000100102680C3242E80013002BF3D100BF95
:10379000202180F8421000210163704710B50446D3
:1037A0002068C06820F040002168C860202084F8AC
:1037B00041002046FFF743F8002010BD70B50546D4
:1037C0006C6A0020E085E0842046FEF73BFE70BD79
:1037D00010B5002804DB0A07130E054A135406E04F
:1037E0000A07140E034A00F00F031B1FD45410BD28
:1037F00000E400E018ED00E002480068C0F3022099
:10380000704700000CED00E0FDF71AFDFFF7D0FC5B
:10381000FFF738F8FFF730F9FFF7E6FAFFF702FA9B
:10382000FFF710F8FFF75CFAFFF708F9FFF732FA35
:10383000FFF7A6F900214148FEF77AFD04213F4831
:10384000FEF776FD08213D48FEF772FD0C213B484E
:10385000FEF76EFD00213A48FEF76AFD0421384864
:10386000FEF766FD08213648FEF762FD0C2134485C
:10387000FEF75EFD00213348FEF75AFD3248FEF7A1
:1038800087FAFCF729FD40F20110FFF7C5FB052080
:10389000FDF71AF94FF48170FFF7BEFB0520FDF725
:1038A00013F940F20310FFF7B7FB0520FDF70CF901
:1038B0004FF48270FFF7B0FB0520FDF705F940F2E9
:1038C0000510FFF7A9FB38E02048FFF777FB1E2023
:1038D000FDF7FAF81D48807800F0040098B16121E6
:1038E0000020FFF7B1FB62210020FFF7ADFB632151
:1038F0000020FFF7A9FB64219620FFF7A5FB6521B7
:103900008220FFF7A1FB1148807800F00100A0B1F0
:1039100062215A20FFF798FB61215A20FFF794FBA0
:1039200063215A20FFF790FB64214FF49670FFF754
:103930008BFB65212820FFF787FBC5E7B800002037
:10394000D8010020000100204801002021000020B3
:1039500021F00042A2F16052B2F5801F01F0004355
:1039600028BFD2F17F6C0BD95FEA001C43EAC20288
:1039700042EB507018BF704728BF20F0010070471D
:10398000B2F5801FBCBF184670474FEA410C1CF5CA
:10399000001F02D2084600F01ABB70B500F079F99A
:1039A00000000089FFF7F6BF4FF00040A0F580004F
:1039B000704700002DE9C04130B4DFF8A0C23CEAF6
:1039C000111418BF3CEA131400F0EC8081EA0305DF
:1039D0001CEA111444EAD57418BF1CEA131500F050
:1039E000C780A4EB05044FF0004545EAC12145EA34
:1039F000C32341EA505143EA525304F17F74994280
:103A000004F500344FEAC0204FEAC22208BF9042BA
:103A100000F09C804FEA13650FF24016765D4FEA86
:103A2000134506FB05F7C7F1807706FB07F74FEA5A
:103A3000D737A7FB03687642C8F58038A7FB06CEC8
:103A400038BFA8F1010807FB08E64FF0000EA6FBFF
:103A5000028CE6FB03CEDCF1000CCEF1004E38BF49
:103A6000AEF1010EA6FB0C584FF000074FF0000519
:103A7000E6FB0E87A1FB08C6A0FB07CE16EB0E06E1
:103A800045F10005E1FB076515F1E04E7EBFA4F5A9
:103A900080345FEA46066D4116F1800745F1000566
:103AA0004FEA17274FEA066647EA0567A6F1DE46A2
:103AB000B6F1805F4FEA15251FD9384624F0010C76
:103AC00005EBC471BCF1FE6F01EB0C1102D8F0BC28
:103AD000BDE8008124425CBF01F5801E9EEAC47FE0
:103AE00002D4F0BCBDE80081244238D4F0BCA1F17E
:103AF000C041BDE8004100F01AB94FEAD22242EAC3
:103B000043524FEAD323A7FB02864FEAD02040EA74
:103B1000415007FB03661EEA0E0F4FEAD12105FB59
:103B2000026658BFA6EB0056B6EB00564FEA520E9F
:103B30004EEAC37E18EB0E0E56EB530EBDD518EBB6
:103B400002085E417F1C55F10005B6E74FF4801571
:103B50004FF000074FF000064FF00008ADE7F0BC53
:103B60004FF0000001F1C04101F00041BDE80081CB
:103B700011EA0C1F0CEA131500D00CE013EA0C1F1D
:103B800000F025804FF00000F0BC81EA030101F055
:103B90000041BDE80081F0BCBDE8004181EA0301BD
:103BA00000F0C5B8F0BCBDE8004170B500F071F898
:103BB000097EFC3E00F007B881EA03014FF00000E7
:103BC00001F00041704781EA030100F0B0B8F0BC99
:103BD000BDE800414FF0000021497047FFFDFBF9AF
:103BE000F7F5F4F2F0EEEDEBE9E8E6E4E3E1E0DE30
:103BF000DDDBDAD8D7D5D4D3D1D0CFCDCCCBCAC8A2
:103C0000C7C6C5C4C2C1C0BFBEBDBCBBBAB9B8B7C8
:103C1000B6B5B4B3B2B1B0AFAEADACABAAA9A8A8BB
:103C2000A7A6A5A4A3A3A2A1A09F9F9E9D9C9C9B89
:103C30009A99999897979695959493939291919034
:103C40008F8F8E8E8D8C8C8B8B8A898988888787C5
:103C50008685858484838382828181800000FF073A
:103C60000000F87F10F0004248BF4042B0FA80F3F5
:103C700010FA03F10AD0C3F11D0303F580634FEA84
:103C8000415002EB035202EBD12170474FF000008C
:103C900070470EF1020E2EF0030E5EF8046B3642F2
:103CA00005D4012A43EB030515F5001F12D801289E
:103CB00041EB010C1CF5001F0CD80ED14FEAD17C52
:103CC00015F5001F0CEB4C0C0CF1020C08BF4CEB73
:103CD000D37C04E04FF0080C01E04FEAD37C0CEBFE
:103CE0004C0526FA05F606F00706B6F1040C06D2D6
:103CF0000EEB860CBDE870404CF0010C6047DFE82D
:103D00000CF0090B02024FF000414FF00000A1F54A
:103D1000002170BD19461046012851EB010418BF5F
:103D2000D4F5001484BF002001F0004170BD0808E4
:103D3000A0F500114FEA31017047000090EA010F31
:103D400048BF81F0004100F15881421A3CBF801AFF
:103D500089184FEAD0524FF07F4C1CEA410FA2EB7A
:103D6000D15318BF9CEA026F00F03B804FF0004C2B
:103D70004CEA00204CEA012121FA03FC10EB0C0C68
:103D80001ED202F1FF325FEA1C2040EBC25038BF66
:103D900070471CF07F0F4FEA400C18BFBCF17F4FFB
:103DA00038BF7047C3F12003994008BF20F00100DD
:103DB000BCF17F4F38BF7047A0F1C04000F007B999
:103DC0004FEA3C00000A40EBC25028BF1CF0FF0F36
:103DD0004FEA400CE6D018BFBCF17F4F38BF7047A8
:103DE000EAE79CEA026F05D010EA5C0F08BF00F01A
:103DF0000040704710B500F0A4F800BF64FBBE3E61
:103E0000C10DD1F19E0206DB4FEA002343F00043CF
:103E100023FA02F07047004207D54FEA4001B1F1A2
:103E2000FE4F02D24FF00000704710B500F089F845
:103E300049922480002070476FEA200070470000FC
:103E40004FF47F0C1CEAD0121EBF1CEAD11392EA79
:103E50000C0F93EA0C0F00F0478090EA010F48BF67
:103E600042F480724FF0004C4CEA00204CEA0121F1
:103E700002EB0302A0FB0113A2F50002002918BF08
:103E800043F001035B0028BF4FEA330342EB2242B9
:103E90005FEA132C4CEBC2502EBFBCEB436FB2F564
:103EA0007C0F70474FEA036CBCF1004F08BF20F055
:103EB0000100B2F57C0F38BF70470BD582F0FF02CE
:103EC00012F5803FC8BF704700F1C040D8BF00F076
:103ED0000040704700F5000C5FEA4C0C48BF70478B
:103EE000B0F1C04000F073B890EA010F0CEAD113B2
:103EF00048BF42F48072624538BF634504D280EA0D
:103F0000010000F00040704710B500F01AF800BF43
:103F10008900013E00F007B800F009B85FEA410CE3
:103F20005FEA1C6C08D080EA010000F050B85FEA3C
:103F3000400C5FEA1C6CF6D14FF00040A0F5800009
:103F400070470EF1020E2EF0030E5EF8044B244271
:103F500004D44FEA4102B2F17F4F11D84FEA400337
:103F6000B3F17F4F0CD80ED14FEAD07CB2F17F4F26
:103F70000CEB4C0C0CF1020C08BF4CEBD17C04E0B8
:103F80004FF0080C01E04FEAD17C0CEB4C0324FA13
:103F900003F404F00704B4F1040C06D20EEB840C15
:103FA000BDE810404CF0010C6047DFE80CF007085A
:103FB00002024FF00040A0F5800010BD084642000C
:103FC00018BFD2F1807288BF00F0004010BDFF2101
:103FD00041EAD050C005704780F0004090EA010FE0
:103FE0007FF5B3AE81F0004100F007B890EA010F11
:103FF00048BF81F000413FF5A8AE421A04D882F0D4
:104000000042A0EB020011444FEAD0524FF07F4C27
:104010001CEA410FA2EBD15318BF9CEA026F4AD0B1
:104020004FF0004C4CEA00204CEA012121FA03FC3D
:10403000B0EB0C0C0FD412F0FE0F36D05FEA4C0040
:104040001DD5001240EBC25038BF70471CF03F0F27
:1040500018BF70470BE0A2F101025FEA1C2040EBA1
:10406000C25038BF70471CF07F0F18BF7047C3F1B4
:104070002003994014BF401E20F0010070478008C3
:104080004FEA122308BF7047B0FA80FCA2EB0C0283
:10409000CCF1280C60FA0CF093EA122F04BF00EB6D
:1040A000C25070474FEAC3707047130A5FEADC10D2
:1040B00008BF7047F6E79CEA026F04D010EA5C0F75
:1040C00008BF0020704710B5FFF73BFF40DFF63E0A
:1040D00081F00040704702030405060708090A0B37
:1040E0000C0D0E0F10100102000000000000000077
:1040F000010203040607080900000000010203048E
:104100000142000000000000000000002C410008F7
:10411000000000203C0000006C010008684100081D
:104120003C0000209C0800008801000800000000FE
:10413000000000000000000000000000000000007F
:10414000000000000000000000000000000000006F
:10415000000000000000000010000000010000004E
:0841600000127A0000080000C3
:0400000508000131BD
:00000001FF
