:020000040800F2
:1000000028090020E5010008ED410008033B000835
:10001000E9410008C3120008814300080000000005
:10002000000000000000000000000000F341000894
:100030008513000800000000F1410008F5410008A8
:10004000FF010008FF010008FF010008FF01000890
:10005000FF010008FF010008871300089113000842
:100060009B130008FF010008FF010008FF010008C2
:10007000FF010008FF010008FF010008FF01000860
:10008000FF010008FF010008FF010008FF01000850
:10009000FF010008FF010008FF010008A513000888
:1000A000FF010008FF010008FF010008FF01000830
:1000B000FF010008FF01000801420008FF010008DD
:1000C000FF010008FF010008FF010008FF01000810
:1000D000FF01000871430008FF010008FF0100084C
:1000E000FF010008FF010008FF010008FF010008F0
:1000F000FF010008FF010008FF010008FF010008E0
:10010000FF010008FF010008FF010008FF010008CF
:10011000FF010008FF010008FF010008FF010008BF
:10012000FF010008FF010008FF010008FF010008AF
:1001300000F002F800F047F80AA090E8000C8244B2
:100140008344AAF10107DA4501D100F03CF8AFF28F
:10015000090EBAE80F0013F0010F18BFFB1A43F0A5
:10016000010318473C5F00005C5F0000103A24BFA9
:1001700078C878C1FAD8520724BF30C830C144BF0C
:1001800004680C607047000000230024002500264E
:10019000103A28BF78C1FBD8520728BF30C148BFEA
:1001A0000B607047662905F01487002070471FB563
:1001B00000F04AFB04000020002105F09DF9E060FA
:1001C0001FBD10B510BD00F03FFC1146FFF7EFFF5B
:1001D00005F08CF800F05DFC03B4FFF7F2FF03BC00
:1001E00000F0A0FC0948804709480047FEE7FEE709
:1001F000FEE7FEE7FEE7FEE7FEE7FEE7FEE7FEE7D7
:1002000004480549054A064B70470000FD410008B7
:1002100031010008280300202809002028050020BB
:10022000280500200FB41CB5074B06AA7B4469467D
:100230000090059800F0EFFA0020694600F0FEFA01
:100240001CBC5DF814FB00000D0600002DE9F04712
:100250004FF0000A89460446C0F820A02046E16815
:100260008847002876D0252806D0D4E90121904778
:10027000206A401C2062F1E7E1682046002588479B
:10028000C4F81CA006460027C4F818A02A2E09D0DE
:10029000304605F023F838B304EB8708303EC8F841
:1002A000186019E059F8041B204604EB870291619D
:1002B000E1688847012F064618D1E069002820DA56
:1002C00025F020051DE0D8F8180000EB800006EBB3
:1002D00040003038C8F818002046E16888470646D4
:1002E00004F0FCFF0028EED1012F0AD02E2E08D1F9
:1002F0002046E16888477F1C0646022F45F020050E
:10030000C4DBA069002803DA404245F00105A06182
:10031000E80701D025F01005B6B1A6F14100192873
:1003200002D8203645F400654A463146204625600D
:100330004D46FFF737FF58B1012806D0ED1D25F0D7
:10034000070000F1080989E704E005F1040985E7E1
:1003500030468AE7206ABDE8F08710B5431C02E00A
:1003600010F8011B71B18107FAD14FF0013202C8B8
:100370008C1A8C4314EAC211F9D0C01A0A0603D0B1
:10038000C01E10BDC01A10BD0A0401D0801E10BDD1
:100390000902FCD0401E10BD4FF0000200B513460C
:1003A00094469646203922BFA0E80C50A0E80C5095
:1003B000B1F12001BFF4F7AF090728BFA0E80C5046
:1003C00048BF0CC05DF804EB890028BF40F8042B3F
:1003D00008BF704748BF20F8022B11F0804F18BFAC
:1003E00000F8012B704770477047704770472DE940
:1003F000FF4F0C461E464FF0FF378BB0D2E900018D
:10040000DDF860800A908A46C1F30A5505B93D4679
:10041000002108464FF00000BAF1000F00F4400040
:1004200005DA00EB80004FF4400101EA50004FEA8A
:100430009059B9F1010F00DDB9460A9850EA4A0017
:100440000ED044F61050A5F2FF3545432F14B8F1F5
:10045000000F1ED07542291E1EDDC9F100021CE0EE
:10046000B8F1010F4FF0000001D0302103E0F2435A
:1004700005E02154401CB042FBDB30460022002145
:1004800021540B99C1F80880C1E900200FB0BDE8E4
:10049000F08FBD1B6D1CDEE74A4600DA694206A8F4
:1004A00000F05CFA06AB93E8070003AB83E80700B3
:1004B00050460A9900F03DFB8DE80700A0F500507A
:1004C0001F3800900398002D0ADD42F21F014A46B2
:1004D0000844002303A90390684600F0A6FD09E044
:1004E000A0F500504A461F38002303A90390684630
:1004F00000F0B0FD8DE807000004000C03D04FF0C1
:10050000FF30410800E01046B8F1000F03D0002290
:10051000009215461EE0751E05D400F099F93032A0
:1005200062556D1EF9D5B3460122084302D0002260
:100530007F1C04E02078302801D100227F1E002A91
:10054000099784D01DE0112D07DA00F081F93032CF
:1005500062556D1C50EA0102F5D1084302D00098A3
:10056000C8B10EE00021681E05E0235C625C6354A4
:100570002254401E491C8142F7DBAB46A81B401E9B
:100580000990002004F80B000B98099AC0F8088025
:10059000C0E9002B7AE711264FF0000857E72DE954
:1005A000F04F88460446D21D22F0070191B0D1E9F0
:1005B0000001CDE90A0104F07DFE02460B98C00F50
:1005C00001D02D2007E02068810701D52B2002E013
:1005D000202101EAC000032A099001D0072A05DB87
:1005E00003464146204600F079F90BE12078800669
:1005F00001D5E06900E00620B8F1650F814606D01C
:10060000B8F1660F18D0B8F1670F70D131E0002053
:10061000B9F1110F009001DB112301E009F1010391
:100620000AAA01A90CA8FFF7E2FEDDE90C7000267A
:1006300009F10105834647E001204B4600904FF049
:1006400000470AAA01A90CA8FFF7D1FEDDE90DB009
:100650000C995D46002610B909F101000D18B9EB9F
:10066000050003D4C0F1FF3609F10105A5EB09002F
:100670002BE0B9F1010F01DA4FF001090020B9F1C7
:10068000110F0090484601DD112300E003460AAA3D
:1006900001A90CA8FFF7ABFEDDE90C704D46002662
:1006A0008346207800070AD4AB4500DA5D4601A8EE
:1006B000012D04DD411911F8011C302907D04F45E7
:1006C00002DA17F1040F04DA012082460FE06D1EF2
:1006D000EEE7002F02DCED1B3E4403E0781CA8424D
:1006E00000DD7D1CB81B00F1010A4FF000472078A7
:1006F000000703D4AA4501DB4FF0FF3A0021B7F110
:10070000004F0DF143088DF8431024D002202B2315
:10071000002F01DA7F422D230A21021EA0F10100E1
:1007200000DC5FB197FBF1FC97FBF1F201FB1C7C55
:1007300017460CF1300C08F801CDEEE7A8F10100E6
:1007400003702188090501D5452100E06521A0F14C
:10075000010800F8011C09980FA9A1EB0807FF1D6B
:1007600000B10120411901EBEA70A1693844081A6F
:10077000401EA0612078C00602D42046AFF300805E
:10078000099828B1D4E901219047206A401C2062D1
:100790002078C00622D52046AFF300801EE0002E50
:1007A00004DBB34502DD01A8805D00E03020D4E920
:1007B00001219047206A401C2062761CAAF10100AA
:1007C0005FEA000A0AD100F03FF8C0680168405CA7
:1007D000D4E901219047206A401C2062281EA5F11F
:1007E0000105DCDC07E0D4E9012118F8010B904792
:1007F000206A401C2062381EA7F10107F3DC204666
:10080000AFF30080032011B041E6000001694A1CEB
:1008100002610878704700B58FB0CDE90131002141
:10082000059105497944CDE9031011466846FFF763
:100830000DFD0FB000BD0000E5FFFFFF0A6802F8E4
:10084000010B0A607047000000487047E802002072
:1008500030B5B0F10A024FEA900E71F100034EEA92
:10086000817EB0EB0E0061EB91014FEA101E4EEA63
:10087000017E10EB0E0041EB11114FEA102E4EEAF3
:10088000016E10EB0E0041EB11214FEA104E4EEAC3
:10089000014E10EB0E0041EB1141401841F10001F7
:1008A0004FEAD00040EA41704FEAD10110EB8005D9
:1008B0004FEA810444EA907444EB01046D1944EB5F
:1008C0000404521BA3414FF0000348BF0A3200D575
:1008D00030BD401C41F1000130BD00002DE9F04168
:1008E0001F46044603260168072A01F4006004DB62
:1008F00008B116A505E016A503E008B115A500E0AE
:1009000015A521F010002060A069C01EA0610FB1E4
:10091000401EA0612046AFF300804FB1D4E9012111
:1009200038469047206A401C2062C01C206206E0C6
:10093000206AFAE7D4E9012115F8010B9047761EE9
:10094000F8D22046AFF30080BDE8F0814E414E0062
:100950006E616E00494E4600696E66002DE9F047F3
:10096000814616468AB0354878440DC88DE80D009A
:1009700032487844801C03AC0DC884E80D0041F671
:100980009B300844372190FBF1F290FBF1F5A5F183
:10099000800501FB12041B3C02D56442012000E0EB
:1009A0000020DFF898A080460027FA44AAF1BE0A8A
:1009B0000EE0E0070AD03246684607EB4701012304
:1009C0000AEB810100F046FB8DE8070064107F1CF4
:1009D000002CEED1194F7F44AE3F19E0E80715D047
:1009E00007EB04100DF1180A90E80E008AE80E00DB
:1009F000C068F04201D1981908903246012306A937
:100A000003A800F027FB03AB83E807006D10641C0C
:100A1000002DE3D14FF0010332466946B8F1000FD3
:100A200003A802D000F001FB01E000F013FBC9E9CC
:100A30000001C9F808200AB0BDE8F0871C57000083
:100A400000487047C80200207546FFF7F9FFAE4620
:100A500005006946534620F00700854618B020B5CA
:100A6000FFF7CEFBBDE820404FF000064FF0000737
:100A70004FF000084FF0000B21F00701AC46ACE846
:100A8000C009ACE8C009ACE8C009ACE8C0098D46B3
:100A9000704710B50446AFF300802046BDE8104013
:100AA000FFF79ABB4FF0013C50F8042B51F8043B80
:100AB0009A4221D1A2EB0C03934313EACC1317D132
:100AC00050F8042B51F8043B9A4215D1A2EB0C03C9
:100AD000934313EACC130BD150F8042B51F8043B89
:100AE0009A4209D1A2EB0C03934313EACC13DBD057
:100AF0004FF00000704700BFD01A01BAB1FA81F17F
:100B000001F0180122FA01F0CB40C1F12001DBB263
:100B1000C0B2C01A2CFA01F3D11A914311EAC311E1
:100B2000E6D1704701491820ABBEFEE7260002005F
:100B300070475FEA400C08BF91F0000F4FEA8C232A
:100B40004FEAC12243EA51514FEA1C5018BF00F549
:100B5000F0404FEA300018BF41F000415FEA6C5CA2
:100B600000F02980BCF1FF3F08BF40F08040704793
:100B7000130C06BF12044FF0100C4FF0000C130EB4
:100B800004BF12020CF1080C130F04BF12010CF188
:100B9000040C930F04BF92000CF1020CD30F04BF9E
:100BA00052000CF1010C11464FF00002A0F11F00A1
:100BB000A0EB0C00704711F0004F08BF704731F0F8
:100BC00000413FF4D5AF0B0C06BF09044FF0100CE9
:100BD0004FF0000C0B0E04BF09020CF1080C0B0FB8
:100BE00004BF09010CF1040C8B0F04BF89000CF148
:100BF000020CCB0F04BF49000CF1010CCCF1200317
:100C0000A0EB0C0022FA03F302FA0CF241EA030112
:100C100000F10100704720F07F4C80EA030023F0D0
:100C20007F47ACEB070303F57C5300F0004003F172
:100C3000FF032DE980494FEA154B09B44FEA1443ED
:100C400025EA0B4E24EA03480FF2042606EB13278D
:100C500049083E785FEA320203FB0667C7F50007E2
:100C600007FB06F64FEA54374FEAD64606F102066E
:100C700007FB066CCCF1005C4FEA1C472CEA074CE2
:100C800007FB06F40CFB06F504EB15464FEA961637
:100C900034BF00204FF000404FEAD13706FB07FC7D
:100CA0004FEA1C4C0CFB0BF7D21B03FB0CF761EB60
:100CB00007010CFB0EF7B0EB074072EB17420CFB81
:100CC00008F734BFA2EB0742B2EB074261EB1741D2
:100CD0004FEA0C444FEA910706FB07FC4FEA1C4C15
:100CE0000CFB0BF7B0EBC74072EB573203FB0CF772
:100CF00034BFA2EBC742B2EBC74261EB57310CFBEA
:100D00000EF7B0EBC70072EB57720CFB08F734BF5D
:100D1000A2EBC702B2EBC70261EB5771039F4FEA28
:100D2000816141EA921104EBCC044FEAD1374FEADA
:100D3000826206FB07FC42EA90124FEA80604FEAAB
:100D40001C4C0CFB0BF7D21B03FB0CF761EB0701F0
:100D50000CFB0EF7B0EB074072EB17420CFB08F7E9
:100D600034BFA2EB0742B2EB074261EB17414FEAF7
:100D70008C554FEA910704EB9C2406FB07FC4FEAD5
:100D80001C4C0CFB0BF7B0EBC74072EB573203FB6C
:100D90000CF734BFA2EBC742B2EBC74261EB57314D
:100DA0000CFB0EF7B0EBC70072EB57720CFB08F7A9
:100DB00034BFA2EBC702B2EBC70261EB577115EB70
:100DC0004C254FEA816141EA92114FEA82624FEA73
:100DD000D13742EA901206FB07FC44F100044FEAC7
:100DE00080604FEA1C4C0CFB0BF7D21B03FB0CF78B
:100DF00061EB07010CFB0EF7B0EB074072EB1742FB
:100E00000CFB08F734BFA2EB0742B2EB074261EBE1
:100E1000174115EB1C154FEA813141EA92414FEA27
:100E2000823242EA90424FEA80304FEA0C7644F137
:100E3000000448EA03434EEA0B484FF0000EB2EBC1
:100E4000080C71EB030724BF624639464EEB0E0EC9
:100E50004FF0000B0018524149414BEB0B0BB2EB2A
:100E6000080C71EB03077BF1000B24BF6246394687
:100E70004EEB0E0E4FF0000B0018524149414BEB68
:100E80000B0BB2EB080C71EB03077BF1000B24BFDB
:100E9000624639464EEB0E0E51EA020718BF46F085
:100EA000010616EB0E7655F1000254F1000103D550
:100EB000BDE88901BDE80088BDE88901BDE80048BA
:100EC000B619524141EB0101A3F101037047808043
:100ED0007F7E7D7C7B7A7978777676757473727194
:100EE00071706F6E6E6D6C6C6B6A6A69686867664C
:100EF00066656464636362616160605F5F5E5E5DDE
:100F00005D5C5C5B5B5A5A59595858575756565551
:100F100055555454535352525251515050504F4FB3
:100F20004F4E4E4D4D4D4C4C4C4B4B4B4A4A4A4903
:100F30004949484848474747474646464545454446
:100F40004444444343434342424242414141002BD3
:100F50009C4630D477002BD01CB54FEA370703B43A
:100F60004FF010004FF01001BAF1000F06D0BCF1A5
:100F7000000FDCBF40F0080040F008014FF0000017
:100F80000FBCBDE810400BF1010BBBF1010F08BF16
:100F90005FEA170722BF12F1010211F101014FF0C0
:100FA000004143F1000300F0004043EA00007047B5
:100FB000F9D35708D0E746EA064613F1400F4FEA47
:100FC00016461FDD13F1200FDFBF16430A4600212E
:100FD00020335B42BED0C3F1200746EA064602FA40
:100FE00007F74FEA164646EA0706C3F1200722FA3A
:100FF00003F201FA07F721FA03F14FF0000342EA86
:101000000702A7E746EA020646EA06464FEA164600
:1010100046EA0106BCBF46EA0646360C4FF000031E
:101020004FF000024FF0000194E72DE9804C9A4602
:10103000934670B491E8380007C831EA400C48BFC5
:1010400034EA430C03D5FFF7E6FDFFF780FFF0BC61
:10105000BDE8008C2DE9804C9A46934670B491E827
:10106000380007C810F0804F08BF13F0804F03D13D
:1010700000F005F8FFF76BFFF0BCBDE8008C20F036
:101080007F4780EA030023F07F4C07EB0C03A3F5B6
:101090007C5300F00040A3F1FE0392F0000F00F03B
:1010A000B38095F0000F00F077802DE901494FEAF9
:1010B00011404FEA144621EA004800FB06FC24EAEE
:1010C000064708FB06F607FB08F800FB07F718EBD6
:1010D00006484CEB164C4FEA124B18EB07484FEA08
:1010E00015464CEB174022EA0B4E0BFB06FC25EA9B
:1010F00006470EFB06F607FB0EFE0BFB07F71EEB83
:10110000064E4CEB164C4FF000061EEB074E4CEB18
:10111000174B18EB0B0840F1000018EB0E0B58EBC7
:10112000000840F100008F1A4FF000013CBFC94396
:10113000661B14BFB5EB040C00213CBFC943F61B72
:101140004FEA17444EEA8E0E27EA04454FEA1C4741
:1011500004FB07622CEA074C05FB07F70CFB05F6BE
:1011600004FB0CFC16EB074642EB174216EB0C4651
:1011700042EB1C421BEB060658EB0202414146EAD9
:101180009E0601D5BDE80189B619524141EB010126
:10119000A3F10103BDE801894FEA14454FEA114765
:1011A00024EA054621EA074C05FB07F406FB07F78E
:1011B0000CFB06F105FB0CFC11EB074144EB17445B
:1011C0004FEA124711EB0C4144EB1C4422EA074C56
:1011D00005FB07F206FB07F70CFB06F605FB0CFC0C
:1011E00016EB074642EB174216EB0C4642EB1C454A
:1011F0006A1854F1000148BF7047B619524141EBDB
:101200000101A3F10103704795F0000F37D04FEAB9
:1012100011424FEA144721EA024624EA074C02FB36
:1012200007F106FB07F70CFB06F402FB0CFC14EBC2
:10123000074441EB17414FEA154714EB0C4441EBCF
:101240001C4125EA074C02FB07F506FB07F70CFBE0
:1012500006F602FB0CFC16EB074645EB174516EBB2
:101260000C4645EB1C42121951F1000148BF704772
:10127000B619524141EB0101A3F1010370474FEA56
:1012800014454FEA114724EA054621EA074C05FBBD
:1012900007F106FB07F70CFB06F24FF0000605FB13
:1012A0000CFC12EB074241EB174112EB0C4251EBE5
:1012B0001C4148BF7047921841EB0101A3F10103A3
:1012C000704700BFFEE7000000B58BB0002006901D
:1012D00001900290039004900590079001200890DF
:1012E00009900E200A9001A90A4800F01EF908B1E1
:1012F00000F05EF80221074800F05DF808B100F048
:1013000057F8044800F0B0FA08B100F051F80BB0FB
:1013100000BD0000300000202DE9F04387B00646F4
:101320000C46174698464FF000091EB9002002905F
:10133000009402E00420029001940497002003909E
:101340008DF814000BE009F101001FFA80F94FF647
:10135000FE70814503DD012007B0BDE8F083084839
:1013600000F068F90028EED006AB42466946044812
:1013700000F036F805460DB10120EDE70020EBE75F
:1013800030000020704710B5012000F06BFC10BD4C
:1013900010B5022000F066FC10BD10B5042000F06E
:1013A00061FC10BD10B54FF4807000F05BFC10BD07
:1013B00072B600BFFEE710B5024692F82030012B4E
:1013C00001D0022B06D1106840690843146860619F
:1013D000002010BD506A40F4802050620120F8E7E0
:1013E000F0B504460D461E4694F8207020688368C8
:1013F000A86800B900E000BF012F01D0022F7DD105
:1014000003F0806030B903F0006018B903F0805039
:1014100000287ED0C3F30161012088403060A868B5
:1014200060B9B5F800C0E86840EA4C5C206800F597
:10143000C07000EB0110C0F800C00FE0D5E901C09A
:1014400040EACC00D5F80CC040EA0C00D4F800C04B
:101450000CF5C07C0CEB011CCCF80000D5F810C0DA
:10146000206800F5C07000EB0110C0F804C0287DB2
:1014700001280ED1206800F5C07000EB0110406813
:1014800040F4807C206800F5C07000EB0110C0F8CB
:1014900004C0D079000692F806C040EA0C4092F8E9
:1014A00005C040EA0C2092F804C040EA0C00D4F8D1
:1014B00000C00CF5C07C0CEB011CCCF80C00D07803
:1014C000000692F802C040EA0C4092F801C040EADF
:1014D0000C2092F800C040EA0C00D4F800C00CF5D3
:1014E000C07C0CEB011CCCF80800206800F5C07033
:1014F00000EB0110006840F0010C01E00FE008E093
:10150000206800F5C07000EB0110C0F800C000209A
:10151000F0BD606A40F4001060620120F8E7606A84
:1015200040F4802060620120F2E7F0B504460A46EC
:10153000216894F82050012D01D0022D74D1D1F8EA
:10154000000240F00100C1F80002107D00F01F060B
:10155000012000FA06F3D1F81C029843C1F81C02DE
:10156000D069C8B9D1F80C029843C1F80C02908830
:1015700080B2968940EA064601F51070576940F836
:101580003760108880B2168940EA064601F510706F
:10159000576900EBC7004660D069012819D1D1F81E
:1015A0000C021843C1F80C02908880B2168840EAF9
:1015B000064601F51070576940F83760908980B28F
:1015C000168940EA064601F51070576900EBC7001E
:1015D0004660906928B9D1F804029843C1F8040222
:1015E00004E0D1F804021843C1F80402106928B9D4
:1015F000D1F814029843C1F8140204E0D1F814029F
:101600001843C1F81402106A012804D1D1F81C0251
:101610001843C1F81C02D1F8000220F00100C1F803
:1016200000020020F0BDFFE7606A40F480206062A5
:101630000120F7E70146002091F82020012A01D07F
:10164000022A11D10B689B6803F0806303B1401C30
:101650000B689B6803F0006303B1401C0B689B6838
:1016600003F0805303B1401C704770B504460CB9B9
:10167000012070BD94F8200010B9204600F0B0F8A9
:101680002068006840F001002168086000F0A6FCB6
:1016900005460DE000F0A2FC401B0A2808D9606A4C
:1016A00040F400306062052084F820000120E0E76B
:1016B0002068406800F001000028EBD02068006836
:1016C00020F002002168086000F088FC05460DE06B
:1016D00000F084FC401B0A2808D9606A40F40030FE
:1016E0006062052084F820000120C2E7206840687D
:1016F00000F002000028EBD1207E012806D12068EE
:10170000006840F080002168086005E020680068FB
:1017100020F0800021680860607E012806D12068E2
:10172000006840F040002168086005E0206800681B
:1017300020F0400021680860A07E012806D12068C2
:10174000006840F020002168086005E0206800681B
:1017500020F0200021680860E07E012806D1206882
:10176000006820F010002168086005E0206800682B
:1017700040F0100021680860207F012806D1206811
:10178000006840F008002168086005E020680068F3
:1017900020F0080021680860607F012806D12068D9
:1017A000006840F004002168086005E020680068D7
:1017B00020F0040021680860D4E90201084321698F
:1017C0000843616908436168491E08432168C8618C
:1017D00000206062012084F82000002049E700001A
:1017E00010B586B004460020029003900490059046
:1017F0001A49206888422ED100BF1948C06940F0BC
:1018000000701749C8610846C06900F00070019077
:1018100000BF00BF00BF0846806940F00400886137
:101820000846806900F00400019000BF00BFC814A2
:10183000029000200390049002A90A4800F020FAC8
:101840004FF480500290022003900320059002A9DB
:10185000044800F015FA06B010BD00000064004016
:10186000001002400008014070B5044694F82000C2
:10187000012822D1022084F820002068006820F08E
:1018800001002168086000F0A9FB05460DE000F0AA
:10189000A5FB401B0A2808D9606A40F4003060624A
:1018A000052084F82000012070BD2068406800F009
:1018B00001000028EBD16062F6E7606A40F4002086
:1018C00060620120F0E70146002291F82100022821
:1018D00008D00420886300BF002081F8200000BFEA
:1018E000012070470868006820F00E000B6818603F
:1018F0000868006820F001000B68186091F840301B
:1019000001209840CB6B5860012081F8210000BF76
:10191000002081F8200000BF1046E2E770B50446C1
:10192000002594F82100022803D00420A06301259B
:10193000C1E02068006820F00E002168086020687F
:10194000006820F00100216808605C492068884236
:1019500052D95A4978392068884201D1012047E09C
:10196000564964392068884201D1102040E053492B
:1019700050392068884201D1801539E04F493C39FF
:101980002068884201D1801432E04C49283920680F
:10199000884202D14FF480302AE048491439206847
:1019A000884202D14FF4801022E0444920688842E6
:1019B00001D140041CE042492068884201D1012045
:1019C00016E03F4914312068884201D110200FE011
:1019D0003B4928312068884201D1801508E0384908
:1019E0003C312068884201D1801401E04FF48030FE
:1019F0003349091F086051E030497839206888422E
:101A000001D1012047E02D4964392068884201D185
:101A1000102040E0294950392068884201D18015C2
:101A200039E026493C392068884201D1801432E0EF
:101A3000224928392068884202D14FF480302AE0B8
:101A40001E4914392068884202D14FF4801022E0E8
:101A50001A492068884201D140041CE018492068D6
:101A6000884201D1012016E01549143120688842CE
:101A700001D110200FE0124928312068884201D19D
:101A8000801508E00E493C312068884201D180145D
:101A900001E04FF48030094980394860012084F822
:101AA000210000BF002084F8200000BF606B10B14F
:101AB0002046616B8847284670BD000080000240C8
:101AC0000804024070B5044600F088FA0646254630
:101AD000681C10B104480078054400BF00F07EFA8D
:101AE000801BA842FAD370BD2400002070B50446C4
:101AF000012C29D10121584800F062FA0546202125
:101B0000554800F05DFA0646012D0DD136B953480F
:101B10000088401C00B25149088005E04F48008809
:101B2000401E00B24D4908806DB936B94B48008857
:101B3000401E00B24949088005E048480088401C22
:101B400000B24649088000BF022C29D10221424838
:101B500000F036FA054640213F4800F031FA0646CB
:101B6000012D0DD136B93D484088401C00B23B499B
:101B7000488005E039484088401E00B23749488017
:101B80006DB936B935484088401E00B233494880A7
:101B900005E032484088401C00B23049488000BF10
:101BA000042C29D104212C4800F00AFA0546802192
:101BB000294800F005FA0646012D0DD136B927480F
:101BC0008088401C00B22549888005E02348808831
:101BD000401E00B2214988806DB936B91F488088FF
:101BE000401E00B21D49888005E01C488088401CCA
:101BF00000B21A49888000BFB4F5807F2BD14FF422
:101C00008071174800F0DCF905464FF40071144864
:101C100000F0D6F90646012D0DD136B90F48C0881F
:101C2000401C00B20D49C88005E00C48C088401E29
:101C300000B20A49C8806DB936B90848C088401E4C
:101C400000B20649C88005E00448C088401C00B2C4
:101C50000249C88000BF70BD001C01400000002088
:101C60000014014010B5044604480068204020B12B
:101C7000024804602046FFF739FF10BD14040140FC
:101C80002DE9F847024600239C467BE14FF001080E
:101C900008FA03F4D1F8008008EA0400A0427DD1DC
:101CA000DFF8F4A2D1F80480A8EB0A09D0453AD0B5
:101CB00014DCB8F1030F50D009DCB8F1000F31D0BB
:101CC000B8F1010F1CD0B8F1020F49D120E0B8F1F2
:101CD000110F18D0B8F1120F42D11EE0B9F5881FCC
:101CE00025D006DCB9F5803F20D0B9F5801F37D16B
:101CF0001AE0B9F5001F18D0B9F5041F30D117E06C
:101D0000D1F80CC02DE0D1F80C8008F1040C28E0CB
:101D1000D1F80C8008F1080C23E0D1F80C8008F110
:101D20000C0C1EE000BF00BF00BF00BF00BF00BF23
:101D3000D1F80880B8F1000F02D14FF0040C0BE08D
:101D4000D1F80880B8F1010F03D14FF0080C1461ED
:101D500002E04FF0080C546103E04FF0000C00E08B
:101D600000BF00BFFF2801D8904601E002F104083F
:101D70004646FF2802D84FEA830803E0A3F108088B
:101D80004FEA88084746D6F800804FF00F0909FA55
:101D900007F928EA09080CFA07F900E07AE048EAAE
:101DA0000908C6F80080D1F8048008F08058B8F11E
:101DB000805F6FD100BFDFF8E481D8F8188048F069
:101DC0000108DFF8D891C9F81880C846D8F81880FB
:101DD00008F00108CDF8008000BF00BF4FEAB93815
:101DE0004FEA930958F829504FEA83784FEA187957
:101DF0004FF00F0808FA09F825EA0805DFF8A08176
:101E0000424502D14FF0000824E0DFF898814245B6
:101E100002D14FF001081DE0DFF88C81424502D16C
:101E20004FF0020816E0DFF88481424502D14FF0FE
:101E300003080FE0DFF87881424502D14FF0040833
:101E400008E0DFF87081424502D14FF0050801E05B
:101E50004FF006084FEA83794FEA197908FA09F832
:101E600048EA0505DFF850814FEA930948F8295000
:101E7000D1F8048008F48018B8F5801F0BD1DFF882
:101E80003C81D8F8008048EA0008DFF83091C9F8B2
:101E900000800AE075E0DFF82481D8F8008028EAA5
:101EA0000008DFF81891C9F80080D1F8048008F420
:101EB0000018B8F5001F0ED1DFF8008108F1040802
:101EC000D8F8008048EA0008DFF8F09009F104092A
:101ED000C9F800800DE0DFF8E48008F10408D8F8C4
:101EE000008028EA0008DFF8D49009F10409C9F855
:101EF0000080D1F8048008F40038B8F5003F0ED116
:101F0000DFF8B880A8F10408D8F8008048EA000893
:101F1000DFF8A890A9F10409C9F800800DE0DFF806
:101F20009C80A8F10408D8F8008028EA0008DFF8AF
:101F30008C90A9F10409C9F80080D1F8048008F454
:101F40008038B8F5803F0ED1DFF87080A8F108081E
:101F5000D8F8008048EA0008DFF86090A9F1080985
:101F6000C9F800800DE0DFF85480A8F10808D8F81F
:101F7000008028EA0008DFF84490A9F10809C9F8B0
:101F800000805B1CD1F8008028FA03F8B8F1000F3C
:101F90007FF47CAEBDE8F88700001110001002400D
:101FA00000080140000C01400010014000140140F5
:101FB00000180140001C01400800014008040140D5
:101FC000024693680B400BB1012000E000207047EF
:101FD0000AB1016101E00B04036170470148006828
:101FE000704700001C00002070B504460CB90120A9
:101FF00070BD94F83D0028B9002084F83C002046CC
:1020000000F0DAF8242084F83D002068006820F011
:102010000100216808602068006840F400402168E1
:1020200008602068006820F400402168086000F023
:102030009BFA05465C496068884206D85B48854241
:1020400001D2012007E0002005E05948854201D275
:10205000012000E00020012800D1C9E75548B5FB68
:10206000F0F62068406820F03F0030432168486067
:102070004D496068884201D8701C07E04FF49670A3
:1020800070434FF47A71B0FBF1F0401C2168096A8B
:1020900021F03F0108432168086243496068884293
:1020A00014D8681E61684900B0FBF1F0401CC0F311
:1020B0000B00042801D204203DE0681E616849003D
:1020C000B0FBF1F0401CC0F30B0034E0A06838B95D
:1020D000681E616801EB4101B0FBF1F0401C0AE0B1
:1020E000681E616801EBC10202EB0111B0FBF1F067
:1020F000401C40F48040C0F30B0008B901201AE0F6
:10210000A06848B9681E616801EB4101B0FBF1F0BD
:10211000401CC0F30B000CE0681E616801EBC102BB
:1021200002EB0111B0FBF1F0401CC0F30B0040F4D6
:10213000804040F400402168C9694CF6FF72914329
:1021400008432168C861D4E9070108432168096888
:1021500021F0C001084321680860D4E90310084356
:102160002168896848F2FF329143084321688860FA
:10217000D4E9050108432168C96821F0FF0108433B
:102180002168C8602068006840F00100216808608C
:1021900000202064202084F83D000020206384F883
:1021A0003E0000BF24E70000A086010080841E00DE
:1021B00000093D0040420F0010B586B004460020E3
:1021C000029003900490059015492068884225D11B
:1021D00000BF1448806940F0080012498861084631
:1021E000806900F00800019000BF00BFC02002908D
:1021F000122003900320059002A90B48FFF740FD31
:1022000000BF0848C06940F400100649C86108468C
:10221000C06900F40010019000BF00BF06B010BDFF
:102220000054004000100240000C014003480068C8
:102230000349097808440149086070471C000020E0
:102240002400002010B50848006840F0100006493E
:102250000860032000F0A8F80F2000F007F800F055
:102260002BF8002010BD00000020024070B504468D
:102270000E4800784FF47A71B1FBF0F00C49096810
:10228000B1FBF0F5284600F0F9FB08B1012070BD64
:10229000102C07D200222146501E00F047F80548B6
:1022A000046001E00120F2E70020F0E724000020B4
:1022B000280000202000002008B500BF11488069D8
:1022C00040F001000F4988610846806900F0010074
:1022D000009000BF00BF00BF0846C06940F08050BA
:1022E000C8610846C06900F08050009000BF00BF80
:1022F00000BF0549486820F0E06040F00070486089
:1023000000BF08BD00100240000001400146084621
:10231000002809DB00F01F0301229A4043099B00BB
:1023200003F1E023C3F8002100BF70472DE9F05FFF
:1023300080460D461646002702F0B4FF0746394690
:102340002A46334601F00700C0F1070ABAF1040F2C
:1023500002D94FF0040A01E0C0F1070AD14600F1AA
:10236000040ABAF1070F02D24FF0000A01E0A0F10F
:10237000030AD4464FF0010A0AFA09FAAAF1010A3F
:102380000AEA020A0AFA0CFA4FF0010B0BFA0CFBEC
:10239000ABF1010B0BEA030B4AEA0B042146404662
:1023A00002F06CFFBDE8F09F00BF00F00702064B93
:1023B00019684FF6FF031940044B0B4343EA02210F
:1023C000014B196000BF70470CED00E00000FA05FA
:1023D00070B504460D460CB9012070BD5A4800681E
:1023E00000F00700A8420ED25748006820F007000E
:1023F0002843554908600846006800F00700A842D5
:1024000001D00120E9E7207800F0020002281DD168
:10241000207800F00400042805D14C48406840F4BE
:10242000E0604A494860207800F00800082805D19B
:102430004648406840F4605044494860434840681A
:1024400020F0F000A168084340494860207800F07F
:10245000010078B36068012806D13C48006800F4A8
:10246000003090B90120B8E76068022806D13748EB
:10247000006800F0007040B90120AEE73348006802
:1024800000F0020008B90120A7E73048406820F0BA
:102490000300616808432D494860FFF79FFD064629
:1024A00009E0FFF79BFD801B41F28831884202D989
:1024B000032092E707E02548406800F00C006168BF
:1024C000B0EB810FEDD12048006800F00700A84272
:1024D0000ED91D48006820F0070028431A490860FB
:1024E0000846006800F00700A84201D0012074E708
:1024F000207800F00400042807D11448406820F434
:10250000E060E168084311494860207800F0080065
:10251000082808D10D48406820F46050216940EA3D
:10252000C1000A49486000F03FF808494968C1F312
:102530000311074A515CC840064908600648006814
:10254000FFF794FE002048E7002002400010024000
:10255000E85F0008280000202000002001480068F3
:10256000704700002800002000B5FFF7F7FF04497E
:102570004968C1F30221034A515CC84000BD000014
:1025800000100240F85F000800B5FFF7E7FF0449BC
:102590004968C1F3C221034A515CC84000BD000034
:1025A00000100240F85F000870B5002100220024EE
:1025B00000230020134D696801F00C05EDB1042DD6
:1025C00002D0082D1AD101E00F4819E00F4DC1F3D8
:1025D0008346AB5D01F4803555B10A4D6D68C5F396
:1025E00040450B4E725D084D5D43B5FBF2F402E0D1
:1025F000084D03FB05F4204602E000BF024800BF7F
:1026000000BF70BD0010024000127A00D65F0008C3
:10261000E65F000800093D00F8B504460CB901204A
:10262000F8BD207800F00100002878D0F848406814
:1026300000F00C0004280CD0F548406800F00C00B5
:10264000082811D1F248406800F48030B0F5803F8E
:102650000AD1EF48006800F4003000285FD06068BD
:1026600000285CD10120DBE700BF6068B0F5803F47
:1026700006D1E748006840F48030E549086028E06A
:10268000606858B9E248006820F48030E04908608A
:102690000846006820F4802008601AE06068B0F501
:1026A000A02F0BD1DA48006840F48020D849086098
:1026B0000846006840F4803008600AE0D4480068AA
:1026C00020F48030D24908600846006820F4802059
:1026D000086000BF606888B1FFF780FC054606E02F
:1026E000FFF77CFC401B642801D9032098E7C84809
:1026F000006800F400300028F2D010E0FFF76EFC14
:10270000054606E0FFF76AFC401B642801D9032058
:1027100086E7BF48006800F400300028F2D1207836
:1027200000F00200022857D1B948406800F00C00C0
:1027300050B1B748406800F00C00082818D1B448E0
:10274000406800F4803098B9B148006800F0020099
:1027500020B12069012801D0012061E7AC48006860
:1027600020F0F800616940EAC100A949086033E03F
:102770002069E8B10120A7490860FFF72FFC054652
:1027800006E0FFF72BFC401B022801D9032047E796
:102790009F48006800F002000028F2D09C480068C2
:1027A00020F0F800616940EAC1009949086013E02F
:1027B000002098490860FFF711FC054606E0FFF786
:1027C0000DFC401B022801D9032029E7904800682E
:1027D00000F002000028F2D1207800F0080008285C
:1027E0002DD1A069B8B101208B490860FFF7F6FB35
:1027F000054606E0FFF7F2FB401B022801D9032043
:102800000EE78348406A00F002000028F2D0012061
:1028100002F090FA13E000207F490860FFF7DEFB2A
:10282000054606E0FFF7DAFB401B022801D903202A
:10283000F6E67748406A00F002000028F2D12078DE
:1028400000F00400042873D100277148C06900F02B
:10285000805070B900BF6E48C06940F080506C492C
:10286000C8610846C06900F08050009000BF00BFFA
:1028700001276A48006800F48070B0B967480068B2
:1028800040F4807065490860FFF7A8FB054606E044
:10289000FFF7A4FB401B642801D90320C0E65F4872
:1028A000006800F480700028F2D000BFE0680128C2
:1028B00006D15748006A40F001005549086227E0F8
:1028C000E06858B95248006A20F001005049086297
:1028D0000846006A20F00400086219E0E068052854
:1028E0000BD14B48006A40F0040049490862084691
:1028F000006A40F0010008620AE04548006A20F0E2
:102900000100434908620846006A20F0040008629A
:1029100000BFE068A0B1FFF761FB054609E0FFF7E3
:102920005DFB401B41F28831884202D9032077E6E3
:1029300022E03748006A00F002000028EFD012E0E1
:10294000FFF74CFB054608E0FFF748FB401B41F250
:102950008831884201D9032062E62D48006A00F0E0
:1029600002000028F0D1012F05D12948C06920F0CC
:1029700080502749C86100BFE069C8B32448406857
:1029800000F00C00082860D0E069022848D100203F
:1029900020490866FFF722FB054606E0FFF71EFB0D
:1029A000401B022801D903203AE61948006800F0CC
:1029B00000700028F2D1206AB0F5803F07D114489A
:1029C000406820F40030A168084311494860D4E908
:1029D000080108430E49496821F4741108430C4961
:1029E000486001200B490866FFF7F8FA054607E042
:1029F0003DE0FFF7F3FA401B022801D903200FE660
:102A00000348006800F000700028F2D02FE00000BA
:102A10000010024000004242800442420070004028
:102A2000002014490866FFF7D9FA054606E0FFF7CB
:102A3000D5FA401B022801D90320F1E50E480068B1
:102A400000F000700028F2D111E0E069012800D107
:102A5000E6E50948466806F48031206A814204D1DF
:102A600006F47011606A814201D00120D8E500208F
:102A7000D6E50000000042420010024070B5044656
:102A80002546681EB0F1807F01D301200FE0681E4B
:102A90004FF0E02148610F214FF0FF3002F0EEFBD4
:102AA00000204FF0E021886107200861002070BD00
:102AB0007047704710B50346002200BF93F83C00F2
:102AC000012801D1022010BD012083F83C0000BF85
:102AD00022F0FF00CC6840EA040222F440708C68C7
:102AE00040EA040222F480604C6840EA040222F4C6
:102AF00000600C6840EA040222F480500C6940EA4D
:102B0000040222F400504C6940EA040222F480409E
:102B1000CC6940EA04021868426400BF002083F8D0
:102B20003C0000BF00BFCEE730B502460B4600BFF9
:102B300092F83C00012801D1022030BD012082F82A
:102B40003C0000BF022082F83D0010684468106815
:102B5000816824F070041868044310684460144DC0
:102B60001068A84213D0134D1068A8420FD0106807
:102B7000B0F1804F0BD0104D1068A84207D00F4D18
:102B80001068A84203D00E4D1068A84205D121F06C
:102B900080015868014310688160012082F83D007F
:102BA00000BF002082F83C0000BF00BFC5E7000066
:102BB000002C0140003401400004004000080040A7
:102BC000000C004010B504460CB9012010BD94F86B
:102BD0003D0028B9002084F83C00204600F026F88B
:102BE000022084F83D00211D206801F011FB012026
:102BF00084F8460000BF84F83E0001213F200155C3
:102C0000402001554120015500BF00BF012084F83C
:102C1000420043200155442001554520015500BF85
:102C2000012084F83D000020D0E7000038B50446BC
:102C30003149206888420DD100BF3048806940F496
:102C400000602E4988610846806900F400600090A9
:102C500000BF50E02A49206888420DD100BF2748B4
:102C6000C06940F002002549C8610846C06900F00B
:102C70000200009000BF3EE022492068884216D141
:102C800000BF1E48C06940F004001C49C8610846E6
:102C9000C06900F00400009000BF00BF00220221C4
:102CA0001E20FFF743FB1E20FFF730FB23E01649F1
:102CB000206888420DD100BF1048C06940F0100064
:102CC0000E49C8610846C06900F01000009000BFBE
:102CD00011E00E49206888420DD100BF0748806985
:102CE00040F40050054988610846806900F40050AE
:102CF000009000BF00BF38BD002C01400010024012
:102D00000004004000080040001000400034014072
:102D1000014691F83D00012801D0012070470220B2
:102D200081F83D00164B0868984213D0154B08688F
:102D300098420FD00868B0F1804F0BD0124B086852
:102D4000984207D0114B0868984203D0104B08688E
:102D500098420CD10868806800F00702062A0CD05F
:102D60000868006840F001000B68186005E008681A
:102D7000006840F001000B6818600020CEE70000FA
:102D8000002C0140003401400004004000080040D5
:102D9000000C0040014691F83D00012801D00120BF
:102DA0007047022081F83D000868C06840F00100CB
:102DB0000B68D860164B0868984213D0154B08680A
:102DC00098420FD00868B0F1804F0BD0124B0868C2
:102DD000984207D0114B0868984203D0104B0868FE
:102DE00098420CD10868806800F00702062A0CD0CF
:102DF0000868006840F001000B68186005E008688A
:102E0000006840F001000B6818600020C8E700006F
:102E1000002C014000340140000400400008004044
:102E2000000C0040014600BF0868006A41F2111220
:102E3000104050B90868006A9210104028B908681C
:102E4000006820F001000A68106000BF012081F8CE
:102E50003D00002070472DE9F04104460D46002753
:102E600000BF94F83C00012802D10220BDE8F081A7
:102E7000012084F83C0000BF022084F83D00206857
:102E8000866826F0770626F47F46206886602868E4
:102E9000502833D00CDC202850D004DC00284BD044
:102EA000102851D149E0302849D040284CD139E090
:102EB00060282DD0702807D0B0F5805F03D0B0F522
:102EC000005F41D10DE041E0D5E902136A68206856
:102ED00001F005FA2068866846F07706206886606B
:102EE00034E0D5E902136A68206801F0F8F9206837
:102EF000806840F480402168886027E0EA6869685B
:102F0000206801F0D2FF5021206801F0C5FF1DE0CC
:102F1000EA686968206801F0DBFF6021206801F041
:102F2000BBFF13E0EA686968206801F0BEFF40213A
:102F3000206801F0B1FF09E000BF00BF00BF2968B1
:102F4000206801F0A9FF01E0012700BF00BF0120B8
:102F500084F83D0000BF002084F83C0000BF3846E4
:102F600084E72DE9F04104460D4614B90120BDE87F
:102F7000F08194F83D0028B9002084F83C002046F8
:102F800000F052F8022084F83D002068806844F286
:102F90000701884321688860211D206801F038F905
:102FA0002068D0F80880206886692068076A286849
:102FB00040EA080840F203308643A969A86840EA5D
:102FC0000120064340F60C4086434FF2F000864352
:102FD000E969E86840EA0120064328690001296A96
:102FE00040EA0130064327F022076969686840EA31
:102FF000011007432068C0F80880206886612068B7
:103000000762012084F8460084F83E0001213F2039
:103010000155012084F8420043200155012084F825
:103020003D000020A3E7000010B586B00446002054
:1030300002900390049005902068B0F1804F23D156
:1030400000BF1248C06940F001001049C86108463D
:10305000C06900F00100019000BF00BF00BF08463A
:10306000806940F0040088610846806900F004002F
:10307000019000BF00BF0320029000200390049045
:1030800002A90348FEF7FCFD06B010BD0010024087
:10309000000801402DE9F04304460D4694F83E60D7
:1030A0003F20075D94F84280432010F804906DB9EA
:1030B000012E02D1B8F1010F02D00120BDE8F0834A
:1030C000022084F83E0084F8420025E0042D0CD153
:1030D000012F02D1B9F1010F01D00120EEE7022149
:1030E0003F2001554320015516E0012E07D1012F45
:1030F00005D1B8F1010F02D1B9F1010F01D00120C2
:10310000DCE7022084F83E0002213F200155022026
:1031100084F842004320015515B1042D0CD105E07F
:1031200001220021206801F0C9F810E001220421E9
:10313000206801F0C3F80AE001220021206801F0B4
:10314000BDF801220421206801F0B8F800BF00BFDB
:103150002068006840F00100216808600020ADE7A9
:10316000704770B504462068C5682068066906F097
:103170000200022819D105F00200022815D1401FD3
:1031800021680861012020772068806900F0030031
:1031900018B12046FFF7E4FF05E0204600F012F9E1
:1031A000204600F0C6F90020207706F0040004282D
:1031B00019D105F00400042815D1C0432168086125
:1031C000022020772068806900F4407018B1204602
:1031D000FFF7C6FF05E0204600F0F4F8204600F0B7
:1031E000A8F90020207706F00800082819D105F07A
:1031F0000800082815D1C043216808610420207701
:103200002068C06900F0030018B12046FFF7A8FF4E
:1032100005E0204600F0D6F8204600F08AF90020AC
:10322000207706F01000102819D105F010001028A2
:1032300015D1C04321680861082020772068C06943
:1032400000F4407018B12046FFF78AFF05E02046E1
:1032500000F0B8F8204600F06CF90020207706F066
:10326000010048B105F0010030B16FF001002168A4
:103270000861204600F0D8F906F08000802809D1C6
:1032800005F08000802805D1C043216808612046F0
:10329000FFF70EFC06F04000402809D105F0400081
:1032A000402805D1C04321680861204600F0CAF9D2
:1032B00006F02000202809D105F02000202805D1A3
:1032C000C043216808612046FFF7F3FB70BD000092
:1032D00010B586B00446002002900390049005903B
:1032E00030492068884222D100BF2F48806940F0D1
:1032F00040002D4988610846806900F04000019037
:1033000000BF00BF4FF4D44002900220039005900C
:1033100002A92648FEF7B4FC00BF2549486820F002
:10332000C00040F0E06040F0C000486037E0214954
:103330002068884217D100BF1B48806940F0040014
:10334000194988610846806900F00400019000BFB7
:1033500000BF4020029002200390059002A9164869
:10336000FEF78EFC1BE015492068884217D100BF8C
:103370000D48806940F010000B498861084680695B
:1033800000F01000019000BF00BF4FF47070029079
:1033900002200390059002A90948FEF771FC06B0CF
:1033A00010BD0000002C0140001002400018014038
:1033B00000000140000400400008014000340140CA
:1033C0000010014070472DE9F04104460D461646B5
:1033D000002700BF94F83C00012802D10220BDE87C
:1033E000F081012084F83C0000BF36B1042E1BD0D0
:1033F000082E31D00C2E5ED145E02946206801F020
:10340000ADFC2068806940F0080021688861206870
:10341000806920F00400216888612068806929693A
:1034200008432168886148E02946206800F062FF6F
:103430002068806940F400602168886120688069A4
:1034400020F480602168886120688069296940EAE9
:1034500001202168886130E02946206801F0B6FC2F
:103460002068C06940F008002168C8612068C06910
:1034700020F004002168C8612068C06929690843F8
:103480002168C86119E02946206801F0DBFC20684A
:10349000C06940F400602168C8612068C06920F4F8
:1034A00080602168C8612068C069296940EA0120FC
:1034B0002168C86101E0012700BF00BF00BF0020F4
:1034C00084F83C0000BF384689E710B504460CB9C3
:1034D000012010BD94F83D0028B9002084F83C007C
:1034E000204600F025F8022084F83D00211D2068C8
:1034F00000F08EFE012084F8460000BF84F83E00F4
:1035000001213F200155402001554120015500BFB8
:1035100000BF012084F8420043200155442001559A
:103520004520015500BF012084F83D000020D0E770
:103530007047704770B504460D4615B994F83E00C3
:103540000BE0042D02D13F20005D06E0082D02D1E2
:103550004020005D01E04120005D012801D00120F4
:1035600070BD1DB9022084F83E000EE0042D03D189
:1035700002213F20015508E0082D03D102214020FF
:10358000015502E00221412001550122294620680F
:1035900000F094FE1F492068884203D01E4920682D
:1035A000884201D1012000E0002028B12068406C51
:1035B00040F400402168486416492068884213D0CE
:1035C0001549206888420FD02068B0F1804F0BD099
:1035D00012492068884207D011492068884203D0E8
:1035E0001049206888420CD12068806800F00706E6
:1035F000062E0CD02068006840F0010021680860A9
:1036000005E02068006840F00100216808600020A3
:10361000A6E70000002C01400034014000040040F7
:1036200000080040000C00400449884204D10449CD
:103630000968491C024A116070470000840100209B
:103640000800002070477047704700002DE9F84FD0
:103650000446206805682068C668206847694FF0FE
:103660000009CA4605F00F09B9F1000F0AD105F0AB
:10367000200038B106F0200020B1204601F0BAFC4D
:10368000BDE8F88FB9F1000F7BD007F0010018B941
:1036900006F49070002874D005F0010030B106F4F3
:1036A000807018B1606C40F00100606405F00400A7
:1036B00030B107F0010018B1606C40F002006064A6
:1036C00005F0020030B107F0010018B1606C40F065
:1036D0000400606405F0080048B106F0200010B94D
:1036E00007F0010018B1606C40F008006064606C85
:1036F000002845D005F0200028B106F0200010B1C8
:10370000204601F077FC20684069C0F3801A606CA5
:1037100000F0080010B9BAF1000F2CD0204601F0DB
:1037200017FD2068406900F0400000B300BF00BFF3
:103730002168143151E8001F21F040002168143144
:1037400041E80002002AF3D100BFE06B50B1774896
:10375000E16B4863E06BFEF7E1F888B1E06B416B29
:1037600088470DE02046FFF76FFF09E009E020469B
:10377000FFF76AFF04E02046FFF766FF0020606461
:103780007EE7206B012877D105F01000002873D068
:1037900006F010000028FAD000BF0020009020683A
:1037A0000068009020684068009000BF00BF20685B
:1037B000406900F0400000285FD0E06B006840687E
:1037C0001FFA80F8B8F1000F55D0A08D404552DDAA
:1037D000A4F82E80E06B8069202843D000BF00BF92
:1037E00021680C3151E8001F21F4807021680C31F0
:1037F00041E80002002AF3D100BF00BF00BF2168EA
:10380000143151E8001F21F001002168143141E812
:103810000002002AF3D100BF00BF00BF21681431AD
:1038200051E8001F21F040002168143141E80002F6
:10383000002AF3D100BF202084F84200002020633A
:1038400000BF00BF21680C3151E8001F21F01000BB
:1038500021680C3141E80002002AF3D100BFE06B7F
:10386000FEF731F802206063A08DE28D801A81B2EC
:103870002046FFF7E8FE03E742E0A08DE18D401A05
:103880001FFA80F8E08DD0B3B8F1000F37D000BF39
:1038900000BF21680C3151E8001F21F490702168AD
:1038A0000C3141E80002002AF3D100BF00BF00BF85
:1038B0002168143151E8001F21F001002168143102
:1038C00041E80002002AF3D100BF202084F8420022
:1038D0000020206300BF00BF21680C3151E8001FA9
:1038E00021F0100021680C3141E80002002AF3D1D8
:1038F00000BF0220606341462046FFF7A4FEBFE6FA
:1039000005F0800030B106F0800018B1204601F0CB
:10391000EFFBB5E605F0400030B106F0400018B10D
:10392000204601F04BFCABE600BFA9E6DD510008E4
:1039300010B504460CB9012010BDA06900B100E02B
:1039400000BF94F8410028B9002084F840002046C8
:1039500000F02AF8242084F841002068C06820F490
:1039600000502168C860204601F0C6FA206800694E
:1039700020F49040216808612068406920F02A0006
:10398000216848612068C06840F400502168C86020
:1039900000206064202084F8410084F84200002068
:1039A000606300BFC8E7000010B586B00446002081
:1039B00002900390049005901E492068884236D1F9
:1039C00000BF1D48806940F480401B49886108465B
:1039D000806900F48040019000BF00BF00BF08462E
:1039E000806940F0040088610846806900F00400A6
:1039F000019000BF00BF48150290022003900320F1
:103A0000059002A90D48FEF73BF94FF48060029043
:103A100000200390049002A90848FEF731F9002223
:103A200003212520FEF782FC2520FEF76FFC06B05F
:103A300010BD0000003801400010024000080140A5
:103A400070472DE9F84F04460E46174699464FF049
:103A5000000A94F84100202850D106B117B901207E
:103A6000BDE8F88F00206064212084F84100FEF753
:103A7000B5FA8246A784E784A068B0F5805F04D1D8
:103A8000206910B90025B04602E035464FF0000825
:103A90001EE05346002280212046CDF8009001F020
:103AA000A7FB20B1202084F841000320D8E745B9C6
:103AB000B8F80000C0F308002168486008F1020867
:103AC00003E02878216848606D1CE08C401EE0848B
:103AD000E08C0028DDD15346002240212046CDF85D
:103AE000009001F085FB20B1202084F841000320E4
:103AF000B6E7202084F841000020B1E70220AFE7BC
:103B0000704700BFFEE7000010B50D480D49086082
:103B10000220486000210B488160C1604FF44021C1
:103B20000161890041610021017641768176C1768B
:103B300001774177FDF799FD08B1FDF739FC10BD1C
:103B4000006400403000002000B585B000200190E6
:103B500002900390049000BF8648806940F04000C6
:103B6000844988610846806900F04000009000BFE9
:103B700000BF00BF0846806940F0800088610846A9
:103B8000806900F08000009000BF00BF00BF0846C1
:103B9000806940F0040088610846806900F00400F4
:103BA000009000BF00BF00BF0846806940F02000C1
:103BB00088610846806900F02000009000BF00BFC7
:103BC00000BF0846806940F48070886108468069BB
:103BD00000F48070009000BF00BF00BF08468069FD
:103BE00040F0100088610846806900F010000090E5
:103BF00000BF00BF00BF0846806940F00800886130
:103C00000846806900F00800009000BF00BF012254
:103C10004FF4C0715848FEF7DBF9012241F2F81168
:103C20005648FEF7D5F900224FF4C0415348FEF73D
:103C3000CFF9012220215248FEF7CAF9082001904D
:103C4000002002900120039001A94B48FEF718F8CC
:103C5000072001904B4802900020039001A94A4898
:103C6000FEF70EF8A02001900020029002200390A1
:103C700001A94548FEF704F8402001900020029079
:103C8000039001A94048FDF7FBFF4FF4C07001907D
:103C900001200290002003900320049001A93648DF
:103CA000FDF7EEFF4FF4807001903648029000203F
:103CB000039001A93548FDF7E3FF4FF40070019030
:103CC00000200290039001A93048FDF7D9FF4FF47E
:103CD000FC700190012002900020039002200490CB
:103CE00001A92648FDF7CCFF4FF4006001900020A9
:103CF00002900120039001A92048FDF7C1FF4FF475
:103D0000E0400190012002900020039003200490E5
:103D100001A91A48FDF7B4FF20200190012002906C
:103D2000002003900320049001A91548FDF7A8FF87
:103D3000002201210620FEF7F9FA0620FEF7E6FA36
:103D4000002201210720FEF7F1FA0720FEF7DEFA34
:103D5000002201210820FEF7E9FA0820FEF7D6FA32
:103D6000002201211720FEF7E1FA1720FEF7CEFA14
:103D700005B000BD001002400018014000200140C5
:103D8000000C014000003110001C014000140140F3
:103D900010B50B480B4908600B48486000210948E2
:103DA0008160C1604FF48041016100214161816106
:103DB000C1610162FEF718F908B1FDF7F9FA10BD0B
:103DC0000054004058000020A086010000B595B0C6
:103DD000002011901290139014900F9010901C21BD
:103DE00008A8FCF7D9FA20216846FCF7D5FA37482D
:103DF00037490860472048600021354881606321C9
:103E0000C16000210161416180218161FEF7DAFE1C
:103E100008B1FDF7CDFA4FF48050119011A92C484C
:103E2000FFF719F808B1FDF7C3FA2948FFF74DFB72
:103E300008B1FDF7BDFA00200F9010900FA924489B
:103E4000FEF772FE08B1FDF7B3FA6020089000207B
:103E500009900A900B900C900D900E90002208A9EA
:103E60001B48FFF7B0FA08B1FDF7A2FA042208A92F
:103E70001748FFF7A8FA08B1FDF79AFA082208A92F
:103E80001348FFF7A0FA08B1FDF792FA0C2208A92F
:103E90000F48FFF798FA08B1FDF78AFA0020009062
:103EA00001900290039004904FF400500590002080
:103EB000079069460648FEF7FDFD08B1FDF778FA60
:103EC0000348FFF705FA15B000BD0000002C0140C3
:103ED000AC00002000B58BB0242102A8FCF75CFAEE
:103EE0000020009001904FF08040174908600020AA
:103EF00048600021144881604FF6FF71C1600021C5
:103F00000161816101200290002003900120049052
:103F1000002005900690079001200890002009904D
:103F20000A9002A90848FFF71CF808B1FDF740FA0B
:103F300000200090019069460348FEF7F5FD08B1A6
:103F4000FDF736FA0BB000BDF400002000B58DB0CF
:103F5000002009900A900B900C90079008901C216B
:103F60006846FCF719FA2048204908604720486055
:103F700000211E48816044F61F61C160002101617B
:103F80008161FEF71FFE08B1FDF712FA4FF4805071
:103F9000099009A91548FEF75EFF08B1FDF708FA78
:103FA0001248FFF792FA08B1FDF702FA00200790D5
:103FB000089007A90D48FEF7B7FD08B1FDF7F8F91D
:103FC0006020009000200190029004900022694639
:103FD0000648FFF7F8F908B1FDF7EAF90348FFF7DB
:103FE00077F90DB000BD0000000400403C01002046
:103FF00000B587B0002003900490059006900190D2
:104000000290144814490860472048600021124873
:10401000816040F2E731C160002101618161FEF7FA
:10402000D1FD08B1FDF7C4F94FF48050039003A906
:104030000948FEF710FF08B1FDF7BAF9002001901A
:10404000029001A90448FEF76FFD08B1FDF7B0F931
:1040500007B000BD00080040840100201CB500200E
:10406000009001900E480F490860472048600021E9
:104070000C4881604FF6FF71C16000218161FEF73D
:10408000A1FD08B1FDF794F9002000900190694668
:104090000448FEF749FD08B1FDF78AF91CBD000090
:1040A00000100040CC01002000B595B00020119018
:1040B0001290139014900F9010901C2108A8FCF7F8
:1040C0006BF920216846FCF767F9374837490860E3
:1040D0004720486000213548816044F61F61C16077
:1040E0000021016141618161FEF76CFD08B1FDF7BE
:1040F0005FF94FF48050119011A92C48FEF7ABFEE8
:1041000008B1FDF755F92948FFF7DFF908B1FDF7C8
:104110004FF900200F9010900FA92448FEF704FDDE
:1041200008B1FDF745F960200890002009900A9039
:104130000B900C900D900E90002208A91B48FFF7E1
:1041400042F908B1FDF734F9042208A91748FFF72E
:104150003AF908B1FDF72CF9082208A91348FFF72E
:1041600032F908B1FDF724F90C2208A90F48FFF72E
:104170002AF908B1FDF71CF9002000900190029087
:10418000039004904FF4005005900020079069467A
:104190000648FEF78FFC08B1FDF70AF90348FFF760
:1041A00097F815B000BD0000003401401402002053
:1041B00010B50B480B4908604FF4E130486000210E
:1041C00008488160C16001610C2141610021816169
:1041D000C161FFF7ADFB08B1FDF7EAF810BD0000C3
:1041E000003801405C02002000BFFEE700BFFEE790
:1041F0007047704710B5FEF719F810BD7047000002
:1042000010B50248FEF7ADFF10BD0000840100208C
:1042100010B50268244B98420ED0244B98420BD024
:10422000B0F1804F08D0224B984205D0214B9842E4
:1042300002D0214B984203D122F070024B681A43FE
:10424000194B98420ED0194B98420BD0B0F1804FC9
:1042500008D0174B984205D0164B984202D0164B07
:10426000984203D122F44072CB681A4322F08003B3
:104270004C6943EA040202608B68C3620B68836284
:10428000094B984202D0094B984201D10B69036354
:1042900001234361036903F001031BB1036923F0A8
:1042A0000103036110BD0000002C014000340140F7
:1042B0000004004000080040000C004030B501F050
:1042C0001F05012404FA05F3046A9C430462046A8E
:1042D00001F01F0502FA05F52C43046230BD30B52C
:1042E0000C46816821F47F4142EA03252543294396
:1042F000816030BD30B5026A056A25F0100505629F
:104300004368846924F4E04424F440740D6844EA6A
:10431000052422F020028D6842EA0512124DA842BF
:1043200000D103E0114DA84207D100BF22F0800266
:10433000CD6842EA051222F040020B4DA84202D09D
:104340000A4DA84209D123F4806323F400634D6928
:1043500043EA85038D6943EA8503436084614D68C0
:104360008563026230BD0000002C01400034014032
:1043700010B50248FFF76AF910BD00005C0200208A
:1043800000BFFEE72DE9F04F85B00446884616468B
:104390001F46DDE90E9A2760C4F80490C4F808A00F
:1043A0001F49304601F04EFB83461E4901F094FC44
:1043B000E0604146E06801F097FD05462946206926
:1043C00001F0D2FA20612846616901F08DFD049068
:1043D000A068049901F080FC02902169606801F0F6
:1043E0007BFC01902946206801F076FC0090019941
:1043F00001F0BAFA8346029901F0B6FA03906561BA
:104400000949284601F034FC06D20849284601F043
:104410002FFD01D200200390039805B0BDE8F08F76
:104420000000B443000070440000F0410000F0C1FF
:1044300070B5044600F00AFC002507E01149485D0C
:1044400000F04CFC10494855681CC5B2092DF5DB3D
:1044500000F0F2FB0C48407820700B48C078C04355
:10446000607009480079C043A07007484079E07047
:104470000548807920710448C07960710248007A4B
:10448000A07170BD00600008BC0200202DE9FC5F37
:1044900004460E4617469846DDE90C9A43463A46CE
:1044A00031461048CDE9009AFFF76CFF83460E496C
:1044B000584601F0DDFC01D20B4807E00B49584695
:1044C00001F0D6FB01D2094800E058468346584621
:1044D00001F07AFB05B22146284600F0E1F8BDE87C
:1044E000FC9F0000A402002000008C4200008CC24F
:1044F0007CB50446B4F9000001F0A2FB05461E4855
:104500001E494FF07C530022CDE90010294661205E
:10451000FFF7BCFFB4F9020001F092FB0546164814
:1045200016494FF07C530022CDE900102946622045
:10453000FFF7ACFFB4F9040001F082FB05460E481A
:104540000E494FF07C530E4ACDE9001029466320F6
:10455000FFF79CFFB4F9060001F072FB0546064820
:1045600006494FF07C530022CDE900102946642013
:10457000FFF78CFF7CBD0000000040406F12833AC3
:10458000000020417CB50446B4F9000001F058FB5E
:1045900005464FF080401F494FF07C531E4ACDE93D
:1045A000001029466120FFF771FFB4F9020001F005
:1045B00047FB05464FF0804016494FF07C53174AA1
:1045C000CDE9001029466220FFF760FFB4F904002E
:1045D00001F036FB05464FF080400E494FF07C530A
:1045E0000F4ACDE9001029466320FFF74FFFB4F9C9
:1045F000060001F025FB05464FF0804005494FF0CD
:104600007C53084ACDE9001029466420FFF73EFF9D
:104610007CBD00006F12833A0080CAC30080CA4389
:1046200000001B430000FAC22DE9FC5F07460C4660
:1046300015461E462146284601F056FC0190A0462C
:104640000121B140481E01F0FBFA8346414638463D
:1046500001F04AFC5946009001F03EFB8246019968
:1046600001F0F0F9814601F0AFFABDE8FC9F0000CF
:104670001CB5044606A103C9CDE900016B460648F6
:104680000278214605480078FCF746FE1CBD000074
:10469000FFFFFFFFFFFFFFFC2D0000202C0000208C
:1046A00070B504460D46612D2FD1002C0CDD002283
:1046B00080215F48FDF78CFC012211025C48FDF768
:1046C00087FC5C4800684463002C0EDA01228021DC
:1046D0005748FDF77DFC00224FF480715448FDF7E8
:1046E00077FC604253490968486374B9012280210C
:1046F0004F48FDF76DFC00224FF480714C48FDF7E8
:1047000067FC02204B4909684863622D2FD1002CB9
:104710000CDD002280214848FDF75AFC01221102DD
:104720004548FDF755FC434800688463002C0EDAC9
:10473000012280214048FDF74BFC00224FF480719C
:104740003D48FDF745FC60423A490968886374B901
:10475000012280213848FDF73BFC00224FF4807194
:104760003548FDF735FC0220324909688863632D1E
:104770002DD1002C0CDD002220212F48FDF728FC34
:10478000012240212C48FDF723FC2A480068C4631D
:10479000002C0DDA012220212748FDF719FC002208
:1047A00040212548FDF714FC604222490968C8638E
:1047B0006CB9012220212048FDF70AFC002240218B
:1047C0001D48FDF705FC02201A490968C863642DDD
:1047D0002DD1002C0CDD002208211748FDF7F8FB35
:1047E000012210211448FDF7F3FB1248006804640D
:1047F000002C0DDA012208210F48FDF7E9FB002209
:1048000010210D48FDF7E4FB60420A49096808647D
:104810006CB9012208210848FDF7DAFB00221021BB
:104820000548FDF7D5FB022002490968086470BD00
:1048300000180140AC000020002001402DE9F05F8D
:1048400081460C46612C1DD1484600F0F5FF074615
:1048500000224D4B00F098FE054600F063FE8246B4
:104860004A49504601F038FA0646494901F07CF8B9
:10487000054601F0C5F91FFA80FB46480068C0F8FC
:1048800034B000BF622C1DD1484600F0D5FF07466A
:1048900000223D4B00F078FE054600F043FE8246C4
:1048A0003A49504601F018FA06463B4901F011FB1F
:1048B000054601F0A5F91FFA80FB36480068C0F8EC
:1048C00038B000BF632C1DD1484600F0B5FF074645
:1048D00000222D4B00F058FE054600F023FE8246D4
:1048E0002A49504601F0F8F906462B4901F0F1FA41
:1048F000054601F085F91FFA80FB26480068C0F8DC
:104900003CB000BF642C1DD1484600F095FF07461F
:104910000022224B00F038FE054600F003FE8246DE
:104920001A49504601F0D8F90646194901F01CF819
:10493000054601F065F91FFA80FB16480068C0F8CB
:1049400040B000BF652C1DD1484600F075FF0746FA
:1049500000220D4B00F018FE054600F0E3FD8246F4
:104960000A49504601F0B8F90646094900F0FCFF33
:10497000054601F045F91FFA80FB09480068C0F8B8
:1049800034B000BFBDE8F09F008066400000FA44EC
:104990000000FA431402002000401C4500C0724091
:1049A0003C0100202DE9F0410546A5F17F0001F012
:1049B00047F906460021304601F05AFA0ED812494E
:1049C000304601F03FF804464FF08041204601F0A8
:1049D00083F9074687F00040BDE8F08100213046AA
:1049E00001F046F90ED286F000480749404601F032
:1049F00029F804464FF08041204601F06DF9074642
:104A00003846E9E70020E7E70000FE422DE9FE4FC7
:104A100004460D4616461F4610232C4A2C492846AC
:104A2000FFF702FE1FFA80F80C232A4A2A49304673
:104A3000FFF7FAFD1FFA80F90C23284A00213846B7
:104A4000FFF7F2FD1FFA80FA0C23254A00210C988B
:104A5000FFF7EAFD1FFA80FB0C23224A22490D983A
:104A6000FFF7E2FD80B202904FEA28208DF80000A7
:104A700008F0FF008DF80100C9F307108DF802005F
:104A80004FEA0970000E40EA2A208DF803000AF070
:104A9000FF008DF80400CBF307108DF805004FEAF6
:104AA0000B70010E029841EA20208DF80600029852
:104AB000C0B28DF807006B460C48027821460C48BE
:104AC0000078FCF729FCBDE8FE8F0000000048419B
:104AD000000048C10000F0410000F0C10000FA43AE
:104AE0000000A04000002041000020C12D00002057
:104AF0002C0000207CB5044661210020FFF7D0FD8A
:104B000062210020FFF7CCFD63210020FFF7C8FDE4
:104B100064210020FFF7C4FD2046FFF743FF054650
:104B2000284600F069F80020184903462A46CDE9D6
:104B3000001001460120FFF769FF0520FCF7C2FFC6
:104B40000020124903462A46CDE900100146022002
:104B5000FFF75CFF0520FCF7B5FF00200B4903467B
:104B60002A46CDE9001001460320FFF74FFF05203C
:104B7000FCF7A8FF0020054903462A46CDE90010AE
:104B800001460420FFF742FF7CBD0000713D0A3F53
:104B900000B58FB0282105A8FBF7FEFB142168465D
:104BA000FBF7FAFB01200590000406900020079017
:104BB0000120099002200C90C1030D914FF4E011E7
:104BC0000E9105A8FDF728FD08B1FCF7F1FB0F20B9
:104BD000009002200190002002904FF4806003902A
:104BE0000020049002216846FDF7F2FB08B1FCF7B3
:104BF000DFFB0FB000BD000070B586B00446204654
:104C000000F086FE05462A460B4608A101A8FBF7E0
:104C100009FB01A8FBF7A1FB85B24FF0FF332A4641
:104C200001A90448FEF70DFF06B070BD252E3266BF
:104C30002C0000005C02002010B501225103024844
:104C4000FDF7C6F910BD00000020014010B500229C
:104C50004FF400510148FDF7BBF910BD00200140A1
:104C600010B5012291030248FDF7B2F910BD000012
:104C70000020014010B500224FF480410148FDF7AB
:104C8000A7F910BD0020014010B501221103024810
:104C9000FDF79EF910BD00000020014010B5002274
:104CA0004FF480510148FDF793F910BD00200140F9
:104CB00010B5044600200849096848620648FEF716
:104CC00027F800BF04480068406AA042FAD30248AF
:104CD000FEF7A8F810BD0000CC01002038B505464D
:104CE0000020009001241DE004EA050010B1FFF748
:104CF000CBFF01E0FFF7D2FFFFF7BCFF1020FFF76B
:104D0000D7FF4FF400610A48FDF75AF918B19DF832
:104D1000000020430090FFF7A3FF1020FFF7C8FF1B
:104D20006006040E002CDFDC9DF8000038BD00009A
:104D30000020014008B508490968C9084FF47A7293
:104D4000B1FBF2F14143009100BF00BF00994A1E40
:104D500000920029F9D108BD2800002030B5026A70
:104D6000056A25F0010505624368846924F0700432
:104D700024F003040D682C4322F002028D682A43BC
:104D8000104DA84200D103E00F4DA84206D100BF4C
:104D900022F00802CD682A4322F00402094DA842FD
:104DA00002D0094DA84207D123F4807323F4007385
:104DB0004D692B438D692B43436084614D68456386
:104DC000026230BD002C01400034014030B5026A5F
:104DD000056A25F4807505624368C46924F070048F
:104DE00024F003040D682C4322F400728D6842EA1B
:104DF0000522124DA84200D103E0114DA84207D16F
:104E000000BF22F40062CD6842EA052222F48062EB
:104E10000A4DA84202D00A4DA84209D123F480537A
:104E200023F400534D6943EA05138D6943EA0513E2
:104E30004360C4614D68C563026230BD002C01400F
:104E40000034014030B5036A056A25F480550562D7
:104E50004468C26922F4E04222F440720D6842EADA
:104E6000052223F400538D6843EA0533084DA84218
:104E700002D0084DA84204D124F480444D6944EA8C
:104E800085144460C2614D680564036230BD000052
:104E9000002C0140003401400A46816821F0700175
:104EA00042F0070319438160704730B50B46144642
:104EB000026A056A25F001050562816921F0F001A9
:104EC00041EA041122F00A021A438161026230BDF4
:104ED00030B50B461446026A056A25F010050562D6
:104EE000816921F4704141EA043122F0A00242EAD2
:104EF00003128161026230BD70B504462168096900
:104F000021F44051E2681143226811612269A168CD
:104F10001143626941EA02052168C96841F20C62E5
:104F2000914329432268D1602168496921F4407185
:104F3000A2691143226851612D4A2168914202D130
:104F4000FDF722FB01E0FDF70FFB00EBC00101EBD9
:104F5000001162689200B1FBF2F100EBC00202EBBB
:104F6000001263689B00B2FBF3F26423B2FBF3F21E
:104F700002EBC20303EB0212A1EB8201322202EB2D
:104F800001116422B1FBF2F101F0F00100EBC0026B
:104F900002EB001263689B00B2FBF3F26423B2FBE6
:104FA000F3F201EB021200EBC00101EB00116368A8
:104FB0009B00B1FBF3F100EBC00303EB0013666849
:104FC000B600B3FBF6F36426B3FBF6F303EBC306BC
:104FD00006EB0313A1EB8301322303EB01116423DE
:104FE000B1FBF3F101F00F0111442268916070BD33
:104FF00000380140F8B5044694F84200222875D1E3
:10500000A068B0F5805F0CD1206950B90025A66A70
:1050100020684068C0F308003080A06A801CA0624D
:1050200015E0A56A0026A068B0F5805F03D0A068EF
:1050300028B9206918B920684068287004E0206801
:10504000406800F07F002870A06A401CA062E08DDC
:10505000401E80B2E085002846D12068C06820F05C
:1050600020002168C8602068C06820F48070216832
:10507000C8602068406920F0010021684861202054
:1050800084F8420000206063206B012826D10020B4
:10509000206300BF00BF21680C3151E8001F21F0E0
:1050A000100021680C3141E80002002AF3D100BF52
:1050B0002068006800F0100010280AD100BF00200E
:1050C000009020680068009020684068009000BF51
:1050D00000BFA18D2046FEF7B6FA02E02046FEF79B
:1050E000AFFC0020F8BD01E00020FBE70220F9E75B
:1050F000014691F84100212828D18868B0F5805FE9
:105100000BD1086948B90A6A1088C0F308000B6817
:105110005860086A801C086205E00B6A581C086227
:1051200018780B685860C88C401E80B2C88458B983
:105130000868C06820F080000B68D8600868C06804
:1051400040F040000B68D860002070470220FCE768
:1051500000BF00BF02680C3252E8002F22F49071A9
:1051600002680C3242E80013002BF3D100BF00BFED
:1051700000BF0268143252E8002F22F001010268D9
:10518000143242E80013002BF3D100BF016B012958
:105190000ED100BF00BF02680C3252E8002F22F08F
:1051A000100102680C3242E80013002BF3D100BF5B
:1051B000202180F8421000210163704710B5044699
:1051C0002068C06820F040002168C860202084F872
:1051D00041002046FEF794FC002010BD70B5054646
:1051E0006C6A0020E085E0842046FEF72DFA70BD51
:1051F0002DE9F84304460D4617469846089E31E0CF
:10520000701C70B3FCF7EAFEA0EB0800B04200D8B7
:1052100016B90320BDE8F8832068C06800F00400D8
:10522000F8B1802D1ED0402D1CD020680068C0F33E
:10523000C000B0B100BF002000902068006800905E
:1052400020684068009000BF00BF2046FFF780FF45
:105250000820606400BF002084F8400000BF0120E7
:10526000D8E7FFE7206800682840A84201D1012064
:1052700000E00020B842C3D00020CBE710B50028E2
:1052800004DB0A07130E054A135406E00A07140E3E
:10529000034A00F00F031B1FD45410BD00E400E0CC
:1052A00018ED00E002480068C0F3022070470000DB
:1052B0000CED00E0490050EAC12018BF04204A0D5F
:1052C00018BF40F0010040F2FF72B2EB515F08BF1F
:1052D00040F00200012808BF0520704730380A2836
:1052E00001D201207047002070470000FCF7AAFFA0
:1052F000FFF74EFCFEF728FCFEF768FDFEF758FFAF
:10530000FEF776FEFEF700FCFEF7CEFEFEF740FD50
:10531000FEF7A4FEFEF71AFEFEF7DCFD00216C4846
:10532000FEF708F904216A48FEF704F908216848E5
:10533000FEF700F90C216648FEF7FCF800216548ED
:10534000FEF7F8F804216348FEF7F4F808216148F5
:10535000FEF7F0F80C215F48FEF7ECF800215E48FC
:10536000FEF7E8F800215D48FDF794FE04215B4854
:10537000FDF790FE5A48FDF70DFDFBF7A5FF012054
:10538000FFF776F90520FCF79DFB0220FFF770F987
:105390000520FCF797FB0320FFF76AF90520FCF7CF
:1053A00091FB0420FFF764F90520FCF78BFB40F22A
:1053B0000510FFF75DF989E04A48FFF739F81E202C
:1053C000FCF780FB474886790778732F7DD13046FC
:1053D000FFF790FB4348807800F00100C8B101223C
:1053E00020214148FCF7F4FD40480068C5170446F9
:1053F00002E03F48FFF77CF83C480068C117021BF9
:1054000061EB05004FF49663D21A70F10000F0D3FF
:1054100000BF3448807800F0020058B16221282093
:10542000FFF70CFA61213C20FFF708FA63214B20BB
:10543000FFF704FA2B48807800F00400D0B1002276
:1054400020212948FCF7C4FD28480068C5170446F8
:1054500002E02748FFF796F824480068C117021BAE
:1054600061EB05004FF4966CB2EB0C0170F100009B
:10547000EFD300BF1B48807800F0080058B16121CD
:105480000020FFF7DBF962210020FFF7D7F9632145
:105490000020FFF7D3F91348807800F0400028B1CE
:1054A0001448007880F00100124908701148007813
:1054B00018B965218220FFF7C1F90E48007801284C
:1054C00003D165213220FFF7B9F900BF74E700006E
:1054D000AC000020140200203C010020F400002059
:1054E0008401002012000020000C01400800002070
:1054F000000000201000002010B500290AD0087814
:10550000002807D005487844FBF7CCFA002801D0E2
:10551000002010BD0248784410BD0000BA0B000006
:10552000B20B000021F00042A2F16052B2F5801FE0
:1055300001F0004328BFD2F17F6C0BD95FEA001C59
:1055400043EAC20242EB507018BF704728BF20F0F8
:1055500001007047B2F5801FBCBF184670474FEA84
:10556000410C1CF5001F02D2084600F07CBC70B54F
:1055700000F079F900000089FFF7F6BF4FF0004016
:10558000A0F58000704700002DE9C04130B4DFF87D
:10559000A0C23CEA111418BF3CEA131400F0EC80DE
:1055A00081EA03051CEA111444EAD57418BF1CEA09
:1055B000131500F0C780A4EB05044FF0004545EA41
:1055C000C12145EAC32341EA505143EA525304F151
:1055D0007F74994204F500344FEAC0204FEAC2229A
:1055E00008BF904200F09C804FEA13650FF240160E
:1055F000765D4FEA134506FB05F7C7F1807706FB9A
:1056000007F74FEAD737A7FB03687642C8F580381B
:10561000A7FB06CE38BFA8F1010807FB08E64FF04C
:10562000000EA6FB028CE6FB03CEDCF1000CCEF1F3
:10563000004E38BFAEF1010EA6FB0C584FF000072C
:105640004FF00005E6FB0E87A1FB08C6A0FB07CEC6
:1056500016EB0E0645F10005E1FB076515F1E04E7E
:105660007EBFA4F580345FEA46066D4116F18007DF
:1056700045F100054FEA17274FEA066647EA056736
:10568000A6F1DE46B6F1805F4FEA15251FD93846F0
:1056900024F0010C05EBC471BCF1FE6F01EB0C11A1
:1056A00002D8F0BCBDE8008124425CBF01F5801E39
:1056B0009EEAC47F02D4F0BCBDE80081244238D405
:1056C000F0BCA1F1C041BDE8004100F01AB94FEAB9
:1056D000D22242EA43524FEAD323A7FB02864FEA83
:1056E000D02040EA415007FB03661EEA0E0F4FEA46
:1056F000D12105FB026658BFA6EB0056B6EB00565B
:105700004FEA520E4EEAC37E18EB0E0E56EB530EC6
:10571000BDD518EB02085E417F1C55F10005B6E7C8
:105720004FF480154FF000074FF000064FF00008CF
:10573000ADE7F0BC4FF0000001F1C04101F00041C5
:10574000BDE8008111EA0C1F0CEA131500D00CE033
:1057500013EA0C1F00F025804FF00000F0BC81EA36
:10576000030101F00041BDE80081F0BCBDE800414B
:1057700081EA030100F0C5B8F0BCBDE8004170B596
:1057800000F071F8097EFC3E00F007B881EA0301E1
:105790004FF0000001F00041704781EA030100F082
:1057A000B0B8F0BCBDE800414FF00000214970479F
:1057B000FFFDFBF9F7F5F4F2F0EEEDEBE9E8E6E4D6
:1057C000E3E1E0DEDDDBDAD8D7D5D4D3D1D0CFCD5D
:1057D000CCCBCAC8C7C6C5C4C2C1C0BFBEBDBCBB96
:1057E000BAB9B8B7B6B5B4B3B2B1B0AFAEADACAB91
:1057F000AAA9A8A8A7A6A5A4A3A3A2A1A09F9F9E6B
:105800009D9C9C9B9A99999897979695959493931C
:10581000929191908F8F8E8E8D8C8C8B8B8A8989B3
:105820008888878786858584848383828281818036
:105830000000FF070000F87F10F0004248BF404220
:10584000B0FA80F310FA03F10AD0C3F11D0303F597
:1058500080634FEA415002EB035202EBD1217047C3
:105860004FF0000070470EF1020E2EF0030E5EF8AE
:10587000046B364205D4012A43EB030515F5001FDE
:1058800012D8012841EB010C1CF5001F0CD80ED1D9
:105890004FEAD17C15F5001F0CEB4C0C0CF1020CFF
:1058A00008BF4CEBD37C04E04FF0080C01E04FEA5A
:1058B000D37C0CEB4C0526FA05F606F00706B6F18C
:1058C000040C06D20EEB860CBDE870404CF0010CC7
:1058D0006047DFE80CF0090B02024FF000414FF087
:1058E0000000A1F5002170BD19461046012851EBBA
:1058F000010418BFD4F5001484BF002001F000415A
:1059000070BD0808A0F500114FEA31017047000092
:1059100043004FEAD30C4FEA3C0C43401FBF400703
:105920000CF1605113F0FE4F70471CF0006F03D173
:1059300000200CF0004170470CF0004343EA507027
:1059400010B540EACC0000F048FA00BF0000009219
:105950004FEA0001FFF7D5BF4FF000414FF00000C4
:10596000A1F500217047000090EA010F48BF81F0C7
:10597000004100F1C082421A3CBF801A89184FEAE8
:10598000D0524FF07F4C1CEA410FA2EBD15318BF0D
:105990009CEA026F00F03B804FF0004C4CEA002084
:1059A0004CEA012121FA03FC10EB0C0C1ED202F18F
:1059B000FF325FEA1C2040EBC25038BF70471CF03A
:1059C0007F0F4FEA400C18BFBCF17F4F38BF7047C4
:1059D000C3F12003994008BF20F00100BCF17F4FC4
:1059E00038BF7047A0F1C04000F03DBA4FEA3C001C
:1059F000000A40EBC25028BF1CF0FF0F4FEA400CDA
:105A0000E6D018BFBCF17F4F38BF7047EAE79CEA89
:105A1000026F05D010EA5C0F08BF00F0004070472D
:105A200010B500F0DAF900BF64FBBE3E401058BF6D
:105A3000C0F14040491058BFC1F140418142EFF3ED
:105A4000008070474FF47F0C1CEAD0121EBF1CEA86
:105A5000D11392EA0C0F93EA0C0F00F0858090EAC4
:105A6000010F48BF42F4807240F4000C41F4000082
:105A70002CF07F4120F07F4000B58142A2EB030271
:105A80000FF2081CACEB504EC0F100009EF800E095
:105A90004FEA4E0E00FB0EFC38BF49004FEA2C1CAB
:105AA00002F5FA020CFB0EF34FEACE1E4FEA112C60
:105AB0004FEAC1210EEB635E42EB22420EFB0CFC6F
:105AC0004FEA1C5300FB03114FEA112C4FEA01313E
:105AD0000EFB0CFC4FEADC4C00FB0C11C14228BF52
